{"abi":[{"type":"constructor","inputs":[],"stateMutability":"nonpayable"},{"type":"function","name":"allowance","inputs":[{"name":"owner","type":"address","internalType":"address"},{"name":"spender","type":"address","internalType":"address"}],"outputs":[{"name":"","type":"uint256","internalType":"uint256"}],"stateMutability":"view"},{"type":"function","name":"approve","inputs":[{"name":"spender","type":"address","internalType":"address"},{"name":"value","type":"uint256","internalType":"uint256"}],"outputs":[{"name":"","type":"bool","internalType":"bool"}],"stateMutability":"nonpayable"},{"type":"function","name":"balanceOf","inputs":[{"name":"account","type":"address","internalType":"address"}],"outputs":[{"name":"","type":"uint256","internalType":"uint256"}],"stateMutability":"view"},{"type":"function","name":"burnFrom","inputs":[{"name":"from","type":"address","internalType":"address"},{"name":"amount","type":"uint256","internalType":"uint256"}],"outputs":[],"stateMutability":"nonpayable"},{"type":"function","name":"decimals","inputs":[],"outputs":[{"name":"","type":"uint8","internalType":"uint8"}],"stateMutability":"view"},{"type":"function","name":"mintTo","inputs":[{"name":"to","type":"address","internalType":"address"},{"name":"amount","type":"uint256","internalType":"uint256"}],"outputs":[],"stateMutability":"nonpayable"},{"type":"function","name":"name","inputs":[],"outputs":[{"name":"","type":"string","internalType":"string"}],"stateMutability":"view"},{"type":"function","name":"owner","inputs":[],"outputs":[{"name":"","type":"address","internalType":"address"}],"stateMutability":"view"},{"type":"function","name":"renounceOwnership","inputs":[],"outputs":[],"stateMutability":"nonpayable"},{"type":"function","name":"symbol","inputs":[],"outputs":[{"name":"","type":"string","internalType":"string"}],"stateMutability":"view"},{"type":"function","name":"totalSupply","inputs":[],"outputs":[{"name":"","type":"uint256","internalType":"uint256"}],"stateMutability":"view"},{"type":"function","name":"transfer","inputs":[{"name":"","type":"address","internalType":"address"},{"name":"","type":"uint256","internalType":"uint256"}],"outputs":[{"name":"","type":"bool","internalType":"bool"}],"stateMutability":"nonpayable"},{"type":"function","name":"transferFrom","inputs":[{"name":"","type":"address","internalType":"address"},{"name":"","type":"address","internalType":"address"},{"name":"","type":"uint256","internalType":"uint256"}],"outputs":[{"name":"","type":"bool","internalType":"bool"}],"stateMutability":"nonpayable"},{"type":"function","name":"transferOwnership","inputs":[{"name":"newOwner","type":"address","internalType":"address"}],"outputs":[],"stateMutability":"nonpayable"},{"type":"event","name":"Approval","inputs":[{"name":"owner","type":"address","indexed":true,"internalType":"address"},{"name":"spender","type":"address","indexed":true,"internalType":"address"},{"name":"value","type":"uint256","indexed":false,"internalType":"uint256"}],"anonymous":false},{"type":"event","name":"OwnershipTransferred","inputs":[{"name":"previousOwner","type":"address","indexed":true,"internalType":"address"},{"name":"newOwner","type":"address","indexed":true,"internalType":"address"}],"anonymous":false},{"type":"event","name":"Transfer","inputs":[{"name":"from","type":"address","indexed":true,"internalType":"address"},{"name":"to","type":"address","indexed":true,"internalType":"address"},{"name":"value","type":"uint256","indexed":false,"internalType":"uint256"}],"anonymous":false},{"type":"error","name":"ERC20InsufficientAllowance","inputs":[{"name":"spender","type":"address","internalType":"address"},{"name":"allowance","type":"uint256","internalType":"uint256"},{"name":"needed","type":"uint256","internalType":"uint256"}]},{"type":"error","name":"ERC20InsufficientBalance","inputs":[{"name":"sender","type":"address","internalType":"address"},{"name":"balance","type":"uint256","internalType":"uint256"},{"name":"needed","type":"uint256","internalType":"uint256"}]},{"type":"error","name":"ERC20InvalidApprover","inputs":[{"name":"approver","type":"address","internalType":"address"}]},{"type":"error","name":"ERC20InvalidReceiver","inputs":[{"name":"receiver","type":"address","internalType":"address"}]},{"type":"error","name":"ERC20InvalidSender","inputs":[{"name":"sender","type":"address","internalType":"address"}]},{"type":"error","name":"ERC20InvalidSpender","inputs":[{"name":"spender","type":"address","internalType":"address"}]},{"type":"error","name":"NotMinter","inputs":[]},{"type":"error","name":"OwnableInvalidOwner","inputs":[{"name":"owner","type":"address","internalType":"address"}]},{"type":"error","name":"OwnableUnauthorizedAccount","inputs":[{"name":"account","type":"address","internalType":"address"}]},{"type":"error","name":"TransferNotSupported","inputs":[]}],"bytecode":{"object":"0x608060405234801561001057600080fd5b50336040518060400160405280601681526020017f42616c616e6365724c6971756964697479546f6b656e000000000000000000008152506040518060400160405280600381526020016210931560ea1b815250816003908161007391906101b3565b50600461008082826101b3565b5050506001600160a01b0381166100b157604051631e4fbdf760e01b81526000600482015260240160405180910390fd5b6100ba816100c0565b50610272565b600580546001600160a01b038381166001600160a01b0319831681179093556040519116919082907f8be0079c531659141344cd1fd0a4f28419497f9722a3daafe3b4186f6b6457e090600090a35050565b634e487b7160e01b600052604160045260246000fd5b600181811c9082168061013c57607f821691505b60208210810361015c57634e487b7160e01b600052602260045260246000fd5b50919050565b601f8211156101ae576000816000526020600020601f850160051c8101602086101561018b5750805b601f850160051c820191505b818110156101aa57828155600101610197565b5050505b505050565b81516001600160401b038111156101cc576101cc610112565b6101e0816101da8454610128565b84610162565b602080601f83116001811461021557600084156101fd5750858301515b600019600386901b1c1916600185901b1785556101aa565b600085815260208120601f198616915b8281101561024457888601518255948401946001909101908401610225565b50858210156102625787850151600019600388901b60f8161c191681555b5050505050600190811b01905550565b610843806102816000396000f3fe608060405234801561001057600080fd5b50600436106100ea5760003560e01c8063715018a61161008c57806395d89b411161006657806395d89b41146101d8578063a9059cbb146101e0578063dd62ed3e146101ee578063f2fde38b1461022757600080fd5b8063715018a6146101a257806379cc6790146101aa5780638da5cb5b146101bd57600080fd5b806323b872dd116100c857806323b872dd14610142578063313ce56714610155578063449a52f81461016457806370a082311461017957600080fd5b806306fdde03146100ef578063095ea7b31461010d57806318160ddd14610130575b600080fd5b6100f761023a565b604051610104919061068c565b60405180910390f35b61012061011b3660046106f7565b6102cc565b6040519015158152602001610104565b6002545b604051908152602001610104565b610120610150366004610721565b6102e6565b60405160128152602001610104565b6101776101723660046106f7565b610301565b005b61013461018736600461075d565b6001600160a01b031660009081526020819052604090205490565b610177610317565b6101776101b83660046106f7565b61032b565b6005546040516001600160a01b039091168152602001610104565b6100f761033d565b6101206101503660046106f7565b6101346101fc36600461077f565b6001600160a01b03918216600090815260016020908152604080832093909416825291909152205490565b61017761023536600461075d565b61034c565b606060038054610249906107b2565b80601f0160208091040260200160405190810160405280929190818152602001828054610275906107b2565b80156102c25780601f10610297576101008083540402835291602001916102c2565b820191906000526020600020905b8154815290600101906020018083116102a557829003601f168201915b5050505050905090565b6000336102da81858561038f565b60019150505b92915050565b600060405163d21ad44b60e01b815260040160405180910390fd5b6103096103a1565b61031382826103ce565b5050565b61031f6103a1565b6103296000610404565b565b6103336103a1565b6103138282610456565b606060048054610249906107b2565b6103546103a1565b6001600160a01b03811661038357604051631e4fbdf760e01b8152600060048201526024015b60405180910390fd5b61038c81610404565b50565b61039c838383600161048c565b505050565b6005546001600160a01b031633146103295760405163118cdaa760e01b815233600482015260240161037a565b6001600160a01b0382166103f85760405163ec442f0560e01b81526000600482015260240161037a565b61031360008383610562565b600580546001600160a01b038381166001600160a01b0319831681179093556040519116919082907f8be0079c531659141344cd1fd0a4f28419497f9722a3daafe3b4186f6b6457e090600090a35050565b6001600160a01b03821661048057604051634b637e8f60e11b81526000600482015260240161037a565b61031382600083610562565b6001600160a01b0384166104b65760405163e602df0560e01b81526000600482015260240161037a565b6001600160a01b0383166104e057604051634a1406b160e11b81526000600482015260240161037a565b6001600160a01b038085166000908152600160209081526040808320938716835292905220829055801561055c57826001600160a01b0316846001600160a01b03167f8c5be1e5ebec7d5bd14f71427d1e84f3dd0314c0f7b2291e5b200ac8c7c3b9258460405161055391815260200190565b60405180910390a35b50505050565b6001600160a01b03831661058d57806002600082825461058291906107ec565b909155506105ff9050565b6001600160a01b038316600090815260208190526040902054818110156105e05760405163391434e360e21b81526001600160a01b0385166004820152602481018290526044810183905260640161037a565b6001600160a01b03841660009081526020819052604090209082900390555b6001600160a01b03821661061b5760028054829003905561063a565b6001600160a01b03821660009081526020819052604090208054820190555b816001600160a01b0316836001600160a01b03167fddf252ad1be2c89b69c2b068fc378daa952ba7f163c4a11628f55a4df523b3ef8360405161067f91815260200190565b60405180910390a3505050565b60006020808352835180602085015260005b818110156106ba5785810183015185820160400152820161069e565b506000604082860101526040601f19601f8301168501019250505092915050565b80356001600160a01b03811681146106f257600080fd5b919050565b6000806040838503121561070a57600080fd5b610713836106db565b946020939093013593505050565b60008060006060848603121561073657600080fd5b61073f846106db565b925061074d602085016106db565b9150604084013590509250925092565b60006020828403121561076f57600080fd5b610778826106db565b9392505050565b6000806040838503121561079257600080fd5b61079b836106db565b91506107a9602084016106db565b90509250929050565b600181811c908216806107c657607f821691505b6020821081036107e657634e487b7160e01b600052602260045260246000fd5b50919050565b808201808211156102e057634e487b7160e01b600052601160045260246000fdfea2646970667358221220f05e22b7d0e8f208952837644a55a0fde9e4d3470997e8c4138fa7f96cb2086464736f6c63430008160033","linkReferences":{}},"methodIdentifiers":{"allowance(address,address)":"dd62ed3e","approve(address,uint256)":"095ea7b3","balanceOf(address)":"70a08231","burnFrom(address,uint256)":"79cc6790","decimals()":"313ce567","mintTo(address,uint256)":"449a52f8","name()":"06fdde03","owner()":"8da5cb5b","renounceOwnership()":"715018a6","symbol()":"95d89b41","totalSupply()":"18160ddd","transfer(address,uint256)":"a9059cbb","transferFrom(address,address,uint256)":"23b872dd","transferOwnership(address)":"f2fde38b"},"id":31}