{"abi":[{"type":"constructor","inputs":[{"name":"_balancerAddress","type":"address","internalType":"address"}],"stateMutability":"nonpayable"},{"type":"function","name":"allowance","inputs":[{"name":"owner","type":"address","internalType":"address"},{"name":"spender","type":"address","internalType":"address"}],"outputs":[{"name":"","type":"uint256","internalType":"uint256"}],"stateMutability":"view"},{"type":"function","name":"approve","inputs":[{"name":"spender","type":"address","internalType":"address"},{"name":"value","type":"uint256","internalType":"uint256"}],"outputs":[{"name":"","type":"bool","internalType":"bool"}],"stateMutability":"nonpayable"},{"type":"function","name":"balanceOf","inputs":[{"name":"account","type":"address","internalType":"address"}],"outputs":[{"name":"","type":"uint256","internalType":"uint256"}],"stateMutability":"view"},{"type":"function","name":"decimals","inputs":[],"outputs":[{"name":"","type":"uint8","internalType":"uint8"}],"stateMutability":"view"},{"type":"function","name":"depositToken","inputs":[{"name":"token","type":"address","internalType":"address"},{"name":"depositAmount","type":"uint256","internalType":"uint256"}],"outputs":[{"name":"","type":"uint256","internalType":"uint256"}],"stateMutability":"nonpayable"},{"type":"function","name":"getFarmingRewards","inputs":[{"name":"user","type":"address","internalType":"address"},{"name":"token","type":"address","internalType":"address"}],"outputs":[{"name":"","type":"uint256","internalType":"uint256"}],"stateMutability":"view"},{"type":"function","name":"name","inputs":[],"outputs":[{"name":"","type":"string","internalType":"string"}],"stateMutability":"view"},{"type":"function","name":"startTime","inputs":[{"name":"user","type":"address","internalType":"address"}],"outputs":[{"name":"timeStamp","type":"uint256","internalType":"uint256"}],"stateMutability":"view"},{"type":"function","name":"symbol","inputs":[],"outputs":[{"name":"","type":"string","internalType":"string"}],"stateMutability":"view"},{"type":"function","name":"totalSupply","inputs":[],"outputs":[{"name":"","type":"uint256","internalType":"uint256"}],"stateMutability":"view"},{"type":"function","name":"transfer","inputs":[{"name":"to","type":"address","internalType":"address"},{"name":"value","type":"uint256","internalType":"uint256"}],"outputs":[{"name":"","type":"bool","internalType":"bool"}],"stateMutability":"nonpayable"},{"type":"function","name":"transferFrom","inputs":[{"name":"from","type":"address","internalType":"address"},{"name":"to","type":"address","internalType":"address"},{"name":"value","type":"uint256","internalType":"uint256"}],"outputs":[{"name":"","type":"bool","internalType":"bool"}],"stateMutability":"nonpayable"},{"type":"function","name":"userDepositsInToken","inputs":[{"name":"","type":"address","internalType":"address"},{"name":"","type":"address","internalType":"address"}],"outputs":[{"name":"","type":"uint256","internalType":"uint256"}],"stateMutability":"view"},{"type":"function","name":"userLPRewardFromToken","inputs":[{"name":"token","type":"address","internalType":"address"},{"name":"user","type":"address","internalType":"address"}],"outputs":[{"name":"lpTokenAmount","type":"uint256","internalType":"uint256"}],"stateMutability":"view"},{"type":"function","name":"withdrawToken","inputs":[{"name":"token","type":"address","internalType":"address"},{"name":"amount","type":"uint256","internalType":"uint256"}],"outputs":[{"name":"","type":"uint256","internalType":"uint256"}],"stateMutability":"nonpayable"},{"type":"function","name":"withdrawYieldFarmingRewards","inputs":[{"name":"token","type":"address","internalType":"address"}],"outputs":[{"name":"","type":"bool","internalType":"bool"}],"stateMutability":"nonpayable"},{"type":"event","name":"Approval","inputs":[{"name":"owner","type":"address","indexed":true,"internalType":"address"},{"name":"spender","type":"address","indexed":true,"internalType":"address"},{"name":"value","type":"uint256","indexed":false,"internalType":"uint256"}],"anonymous":false},{"type":"event","name":"TokenDeposited","inputs":[{"name":"depositor","type":"address","indexed":true,"internalType":"address"},{"name":"token","type":"address","indexed":true,"internalType":"address"},{"name":"rewardTokensReceived","type":"uint256","indexed":false,"internalType":"uint256"}],"anonymous":false},{"type":"event","name":"TokenWithdrawn","inputs":[{"name":"depositor","type":"address","indexed":true,"internalType":"address"},{"name":"token","type":"address","indexed":true,"internalType":"address"},{"name":"amountReceived","type":"uint256","indexed":false,"internalType":"uint256"}],"anonymous":false},{"type":"event","name":"Transfer","inputs":[{"name":"from","type":"address","indexed":true,"internalType":"address"},{"name":"to","type":"address","indexed":true,"internalType":"address"},{"name":"value","type":"uint256","indexed":false,"internalType":"uint256"}],"anonymous":false},{"type":"error","name":"ERC20InsufficientAllowance","inputs":[{"name":"spender","type":"address","internalType":"address"},{"name":"allowance","type":"uint256","internalType":"uint256"},{"name":"needed","type":"uint256","internalType":"uint256"}]},{"type":"error","name":"ERC20InsufficientBalance","inputs":[{"name":"sender","type":"address","internalType":"address"},{"name":"balance","type":"uint256","internalType":"uint256"},{"name":"needed","type":"uint256","internalType":"uint256"}]},{"type":"error","name":"ERC20InvalidApprover","inputs":[{"name":"approver","type":"address","internalType":"address"}]},{"type":"error","name":"ERC20InvalidReceiver","inputs":[{"name":"receiver","type":"address","internalType":"address"}]},{"type":"error","name":"ERC20InvalidSender","inputs":[{"name":"sender","type":"address","internalType":"address"}]},{"type":"error","name":"ERC20InvalidSpender","inputs":[{"name":"spender","type":"address","internalType":"address"}]},{"type":"error","name":"InvalidAmount","inputs":[]},{"type":"error","name":"TransferFailed","inputs":[]},{"type":"error","name":"WithdrawYieldFailed","inputs":[]}],"bytecode":{"object":"0x60a06040523480156200001157600080fd5b5060405162001325380380620013258339810160408190526200003491620000bb565b6040518060400160405280601381526020017f5969656c64436f6e747261637452657761726400000000000000000000000000815250604051806040016040528060038152602001622ca1a960e91b815250816003908162000097919062000194565b506004620000a6828262000194565b5050506001600160a01b031660805262000260565b600060208284031215620000ce57600080fd5b81516001600160a01b0381168114620000e657600080fd5b9392505050565b634e487b7160e01b600052604160045260246000fd5b600181811c908216806200011857607f821691505b6020821081036200013957634e487b7160e01b600052602260045260246000fd5b50919050565b601f8211156200018f576000816000526020600020601f850160051c810160208610156200016a5750805b601f850160051c820191505b818110156200018b5782815560010162000176565b5050505b505050565b81516001600160401b03811115620001b057620001b0620000ed565b620001c881620001c1845462000103565b846200013f565b602080601f831160018114620002005760008415620001e75750858301515b600019600386901b1c1916600185901b1785556200018b565b600085815260208120601f198616915b82811015620002315788860151825594840194600190910190840162000210565b5085821015620002505787850151600019600388901b60f8161c191681555b5050505050600190811b01905550565b60805161109b6200028a600039600081816105c4015281816108450152610b72015261109b6000f3fe608060405234801561001057600080fd5b50600436106101005760003560e01c806370a0823111610097578063a78e63e311610066578063a78e63e314610233578063a9059cbb1461025e578063cd28356e14610271578063dd62ed3e1461028457600080fd5b806370a08231146101dc57806387f391ec1461020557806395d89b41146102185780639e281a981461022057600080fd5b806323b872dd116100d357806323b872dd14610187578063313ce5671461019a578063338b5dea146101a95780636e1dc66e146101bc57600080fd5b806306fdde03146101055780630731e79a14610123578063095ea7b31461015c57806318160ddd1461017f575b600080fd5b61010d6102bd565b60405161011a9190610e31565b60405180910390f35b61014e610131366004610e9c565b600560209081526000928352604080842090915290825290205481565b60405190815260200161011a565b61016f61016a366004610ecf565b61034f565b604051901515815260200161011a565b60025461014e565b61016f610195366004610ef9565b610369565b6040516012815260200161011a565b61014e6101b7366004610ecf565b61038d565b61014e6101ca366004610f35565b60076020526000908152604090205481565b61014e6101ea366004610f35565b6001600160a01b031660009081526020819052604090205490565b61014e610213366004610e9c565b6106d0565b61010d61076d565b61014e61022e366004610ecf565b61077c565b61014e610241366004610e9c565b600660209081526000928352604080842090915290825290205481565b61016f61026c366004610ecf565b61098d565b61016f61027f366004610f35565b61099b565b61014e610292366004610e9c565b6001600160a01b03918216600090815260016020908152604080832093909416825291909152205490565b6060600380546102cc90610f57565b80601f01602080910402602001604051908101604052809291908181526020018280546102f890610f57565b80156103455780601f1061031a57610100808354040283529160200191610345565b820191906000526020600020905b81548152906001019060200180831161032857829003601f168201915b5050505050905090565b60003361035d818585610a6c565b60019150505b92915050565b600033610377858285610a7e565b610382858585610afc565b506001949350505050565b6000816000036103b05760405163162908e360e11b815260040160405180910390fd5b6040516370a0823160e01b81523060048201526000906001600160a01b038516906370a0823190602401602060405180830381865afa1580156103f7573d6000803e3d6000fd5b505050506040513d601f19601f8201168201806040525081019061041b9190610f91565b6040516323b872dd60e01b8152336004820152306024820152604481018590529091506001600160a01b038516906323b872dd906064016020604051808303816000875af1158015610471573d6000803e3d6000fd5b505050506040513d601f19601f820116820180604052508101906104959190610faa565b6104b2576040516312171d8360e31b815260040160405180910390fd5b6040516370a0823160e01b81523060048201526000906001600160a01b038616906370a0823190602401602060405180830381865afa1580156104f9573d6000803e3d6000fd5b505050506040513d601f19601f8201168201806040525081019061051d9190610f91565b9050600061052b8383610fe2565b6001600160a01b03871660009081526005602090815260408083203384529091529020549091501561057d576105608661099b565b61057d576040516325e3547160e11b815260040160405180910390fd5b3360009081526007602052604090204290556105998686610b5b565b604051634b5f918760e11b81526001600160a01b0387811660048301526024820183905260009182917f000000000000000000000000000000000000000000000000000000000000000016906396bf230e9060440160408051808303816000875af115801561060c573d6000803e3d6000fd5b505050506040513d601f19601f820116820180604052508101906106309190610ff5565b6001600160a01b038a166000908152600560209081526040808320338452909152812080549395509193508492610668908490611019565b90915550506001600160a01b03881660008181526006602090815260408083203380855290835292819020859055518481527ff1444b5cad7ce70cb018d1b8edc8618fe303f3c7f034d8d572a6e27facbf2bef910160405180910390a3979650505050505050565b6001600160a01b03821660009081526007602052604081205481906106f59042610fe2565b61070790678ac7230489e8000061102c565b905060006107186201518083611043565b6001600160a01b038086166000908152600560209081526040808320938a1683529290529081205491925090670de0b6b3a76400009061075990849061102c565b6107639190611043565b9695505050505050565b6060600480546102cc90610f57565b6001600160a01b03821660009081526005602090815260408083203384529091528120548211156107c05760405163162908e360e11b815260040160405180910390fd5b6001600160a01b0383166000908152600560209081526040808320338452909152812080548492906107f3908490610fe2565b90915550506001600160a01b038381166000818152600660209081526040808320338452909152808220549051639fec94cb60e01b8152600481019390935260248301869052604483018190529290917f000000000000000000000000000000000000000000000000000000000000000090911690639fec94cb906064016020604051808303816000875af1158015610890573d6000803e3d6000fd5b505050506040513d601f19601f820116820180604052508101906108b49190610f91565b60405163a9059cbb60e01b8152336004820152602481018290529091506001600160a01b0386169063a9059cbb906044016020604051808303816000875af1158015610904573d6000803e3d6000fd5b505050506040513d601f19601f820116820180604052508101906109289190610faa565b610945576040516312171d8360e31b815260040160405180910390fd5b6040518181526001600160a01b0386169033907f8210728e7c071f615b840ee026032693858fbcd5e5359e67e438c890f59e56209060200160405180910390a3949350505050565b60003361035d818585610afc565b6001600160a01b0381166000908152600560209081526040808320338452909152812054610a025760405162461bcd60e51b815260206004820152600f60248201526e4e6f20616374697665207374616b6560881b60448201526064015b60405180910390fd5b6000610a0e33846106d0565b905080600003610a595760405162461bcd60e51b8152602060048201526016602482015275139bc81cdd185ada5b99c81c995dd85c991cc81e595d60521b60448201526064016109f9565b610a633382610bee565b50600192915050565b610a798383836001610bfc565b505050565b6001600160a01b038381166000908152600160209081526040808320938616835292905220546000198114610af65781811015610ae757604051637dc7a0d960e11b81526001600160a01b038416600482015260248101829052604481018390526064016109f9565b610af684848484036000610bfc565b50505050565b6001600160a01b038316610b2657604051634b637e8f60e11b8152600060048201526024016109f9565b6001600160a01b038216610b505760405163ec442f0560e01b8152600060048201526024016109f9565b610a79838383610cd1565b60405163095ea7b360e01b81526001600160a01b037f0000000000000000000000000000000000000000000000000000000000000000811660048301526024820183905283169063095ea7b3906044016020604051808303816000875af1158015610bca573d6000803e3d6000fd5b505050506040513d601f19601f82011682018060405250810190610a799190610faa565b610bf88282610dfb565b5050565b6001600160a01b038416610c265760405163e602df0560e01b8152600060048201526024016109f9565b6001600160a01b038316610c5057604051634a1406b160e11b8152600060048201526024016109f9565b6001600160a01b0380851660009081526001602090815260408083209387168352929052208290558015610af657826001600160a01b0316846001600160a01b03167f8c5be1e5ebec7d5bd14f71427d1e84f3dd0314c0f7b2291e5b200ac8c7c3b92584604051610cc391815260200190565b60405180910390a350505050565b6001600160a01b038316610cfc578060026000828254610cf19190611019565b90915550610d6e9050565b6001600160a01b03831660009081526020819052604090205481811015610d4f5760405163391434e360e21b81526001600160a01b038516600482015260248101829052604481018390526064016109f9565b6001600160a01b03841660009081526020819052604090209082900390555b6001600160a01b038216610d8a57600280548290039055610da9565b6001600160a01b03821660009081526020819052604090208054820190555b816001600160a01b0316836001600160a01b03167fddf252ad1be2c89b69c2b068fc378daa952ba7f163c4a11628f55a4df523b3ef83604051610dee91815260200190565b60405180910390a3505050565b6001600160a01b038216610e255760405163ec442f0560e01b8152600060048201526024016109f9565b610bf860008383610cd1565b60006020808352835180602085015260005b81811015610e5f57858101830151858201604001528201610e43565b506000604082860101526040601f19601f8301168501019250505092915050565b80356001600160a01b0381168114610e9757600080fd5b919050565b60008060408385031215610eaf57600080fd5b610eb883610e80565b9150610ec660208401610e80565b90509250929050565b60008060408385031215610ee257600080fd5b610eeb83610e80565b946020939093013593505050565b600080600060608486031215610f0e57600080fd5b610f1784610e80565b9250610f2560208501610e80565b9150604084013590509250925092565b600060208284031215610f4757600080fd5b610f5082610e80565b9392505050565b600181811c90821680610f6b57607f821691505b602082108103610f8b57634e487b7160e01b600052602260045260246000fd5b50919050565b600060208284031215610fa357600080fd5b5051919050565b600060208284031215610fbc57600080fd5b81518015158114610f5057600080fd5b634e487b7160e01b600052601160045260246000fd5b8181038181111561036357610363610fcc565b6000806040838503121561100857600080fd5b505080516020909101519092909150565b8082018082111561036357610363610fcc565b808202811582820484141761036357610363610fcc565b60008261106057634e487b7160e01b600052601260045260246000fd5b50049056fea2646970667358221220a25ce3b4fda385a50b0a7098885b91fcf7d9ed10ace71bfa03f42ffbcda0001c64736f6c63430008160033","linkReferences":{}},"methodIdentifiers":{"allowance(address,address)":"dd62ed3e","approve(address,uint256)":"095ea7b3","balanceOf(address)":"70a08231","decimals()":"313ce567","depositToken(address,uint256)":"338b5dea","getFarmingRewards(address,address)":"87f391ec","name()":"06fdde03","startTime(address)":"6e1dc66e","symbol()":"95d89b41","totalSupply()":"18160ddd","transfer(address,uint256)":"a9059cbb","transferFrom(address,address,uint256)":"23b872dd","userDepositsInToken(address,address)":"0731e79a","userLPRewardFromToken(address,address)":"a78e63e3","withdrawToken(address,uint256)":"9e281a98","withdrawYieldFarmingRewards(address)":"cd28356e"},"id":28}