{"abi":[{"type":"function","name":"BPOW_PRECISION","inputs":[],"outputs":[{"name":"","type":"uint256","internalType":"uint256"}],"stateMutability":"view"},{"type":"function","name":"MAX_BPOW_BASE","inputs":[],"outputs":[{"name":"","type":"uint256","internalType":"uint256"}],"stateMutability":"view"},{"type":"function","name":"MIN_BPOW_BASE","inputs":[],"outputs":[{"name":"","type":"uint256","internalType":"uint256"}],"stateMutability":"view"},{"type":"function","name":"calcOutGivenIn","inputs":[{"name":"tokenBalanceIn","type":"uint256","internalType":"uint256"},{"name":"tokenWeightIn","type":"uint256","internalType":"uint256"},{"name":"tokenBalanceOut","type":"uint256","internalType":"uint256"},{"name":"tokenWeightOut","type":"uint256","internalType":"uint256"},{"name":"tokenAmountIn","type":"uint256","internalType":"uint256"},{"name":"swapFee","type":"uint256","internalType":"uint256"}],"outputs":[{"name":"tokenAmountOut","type":"uint256","internalType":"uint256"}],"stateMutability":"pure"},{"type":"function","name":"calcPoolOutGivenSingleIn","inputs":[{"name":"tokenBalanceIn","type":"uint256","internalType":"uint256"},{"name":"tokenWeightIn","type":"uint256","internalType":"uint256"},{"name":"poolSupply","type":"uint256","internalType":"uint256"},{"name":"totalWeight","type":"uint256","internalType":"uint256"},{"name":"tokenAmountIn","type":"uint256","internalType":"uint256"},{"name":"swapFee","type":"uint256","internalType":"uint256"}],"outputs":[{"name":"poolAmountOut","type":"uint256","internalType":"uint256"}],"stateMutability":"pure"}],"bytecode":{"object":"0x608060405234801561001057600080fd5b506108ed806100206000396000f3fe608060405234801561001057600080fd5b50600436106100575760003560e01c8063189d00ca1461005c5780638656b65314610076578063ba019dab14610089578063ba9530a614610091578063bc694ea2146100a4575b600080fd5b6100646100ac565b60405190815260200160405180910390f35b6100646100843660046107ca565b6100c6565b610064600181565b61006461009f3660046107ca565b610167565b6100646101ed565b6100c36402540be400670de0b6b3a7640000610839565b81565b6000806100d3878661020c565b905060006100f26100ec670de0b6b3a764000084610338565b85610395565b905060006101118661010c670de0b6b3a764000085610338565b610395565b9050600061011f8b83610470565b9050600061012d828d61020c565b9050600061013b82876104c9565b90506000610149828d610395565b9050610155818d610338565b9e9d5050505050505050505050505050565b600080610174878661020c565b9050600061018a670de0b6b3a764000085610338565b90506101968582610395565b905060006101ad8a6101a88c85610470565b61020c565b905060006101bb82856104c9565b905060006101d1670de0b6b3a764000083610338565b90506101dd8a82610395565b9c9b505050505050505050505050565b6001610202670de0b6b3a7640000600261084d565b6100c39190610864565b6000816000036102525760405162461bcd60e51b815260206004820152600c60248201526b4552525f4449565f5a45524f60a01b60448201526064015b60405180910390fd5b6000610266670de0b6b3a76400008561084d565b90508315806102855750670de0b6b3a76400006102838583610839565b145b6102c45760405162461bcd60e51b815260206004820152601060248201526f11549497d1125597d25395115493905360821b6044820152606401610249565b60006102d1600285610839565b6102db9083610877565b9050818110156103205760405162461bcd60e51b815260206004820152601060248201526f11549497d1125597d25395115493905360821b6044820152606401610249565b600061032c8583610839565b93505050505b92915050565b600080600061034785856105f8565b91509150801561038d5760405162461bcd60e51b81526020600482015260116024820152704552525f5355425f554e444552464c4f5760781b6044820152606401610249565b509392505050565b6000806103a2838561084d565b90508315806103b95750826103b78583610839565b145b6103f85760405162461bcd60e51b815260206004820152601060248201526f4552525f4d554c5f4f564552464c4f5760801b6044820152606401610249565b600061040d6002670de0b6b3a7640000610839565b6104179083610877565b90508181101561045c5760405162461bcd60e51b815260206004820152601060248201526f4552525f4d554c5f4f564552464c4f5760801b6044820152606401610249565b600061032c670de0b6b3a764000083610839565b60008061047d8385610877565b9050838110156104c25760405162461bcd60e51b815260206004820152601060248201526f4552525f4144445f4f564552464c4f5760801b6044820152606401610249565b9392505050565b600060018310156105145760405162461bcd60e51b81526020600482015260156024820152744552525f42504f575f424153455f544f4f5f4c4f5760581b6044820152606401610249565b6001610529670de0b6b3a7640000600261084d565b6105339190610864565b83111561057b5760405162461bcd60e51b815260206004820152601660248201527508aa4a4be84a09eaebe8482a68abea89e9ebe90928e960531b6044820152606401610249565b60006105868361062f565b905060006105948483610338565b905060006105aa866105a58561064d565b610661565b9050816000036105be579250610332915050565b60006105e187846105dc6402540be400670de0b6b3a7640000610839565b6106d7565b90506105ed8282610395565b979650505050505050565b6000808284106106175761060c8385610864565b600091509150610628565b6106218484610864565b6001915091505b9250929050565b6000670de0b6b3a76400006106438361064d565b610332919061084d565b6000610332670de0b6b3a764000083610839565b60008061066f60028461088a565b60000361068457670de0b6b3a7640000610686565b835b9050610693600284610839565b92505b82156104c2576106a68485610395565b93506106b360028461088a565b156106c5576106c28185610395565b90505b6106d0600284610839565b9250610696565b60008281806106ee87670de0b6b3a76400006105f8565b9092509050670de0b6b3a764000080600060015b8884106107bb57600061071d670de0b6b3a76400008361084d565b905060008061073d8a61073885670de0b6b3a7640000610338565b6105f8565b9150915061074f8761010c848c610395565b965061075b878461020c565b96508660000361076d575050506107bb565b8715610777579315935b8015610781579315935b8415610798576107918688610338565b95506107a5565b6107a28688610470565b95505b50505080806107b39061089e565b915050610702565b50909998505050505050505050565b60008060008060008060c087890312156107e357600080fd5b505084359660208601359650604086013595606081013595506080810135945060a0013592509050565b634e487b7160e01b600052601260045260246000fd5b634e487b7160e01b600052601160045260246000fd5b6000826108485761084861080d565b500490565b808202811582820484141761033257610332610823565b8181038181111561033257610332610823565b8082018082111561033257610332610823565b6000826108995761089961080d565b500690565b6000600182016108b0576108b0610823565b506001019056fea26469706673582212200dadc1330faa22703134abaed2286695cb79cc3db209daff3b6a39e8563f718d64736f6c63430008160033","linkReferences":{}},"methodIdentifiers":{"BPOW_PRECISION()":"189d00ca","MAX_BPOW_BASE()":"bc694ea2","MIN_BPOW_BASE()":"ba019dab","calcOutGivenIn(uint256,uint256,uint256,uint256,uint256,uint256)":"ba9530a6","calcPoolOutGivenSingleIn(uint256,uint256,uint256,uint256,uint256,uint256)":"8656b653"},"id":26}