{"abi":[{"type":"function","name":"BPOW_PRECISION","inputs":[],"outputs":[{"name":"","type":"uint256","internalType":"uint256"}],"stateMutability":"view"},{"type":"function","name":"MAX_BPOW_BASE","inputs":[],"outputs":[{"name":"","type":"uint256","internalType":"uint256"}],"stateMutability":"view"},{"type":"function","name":"MIN_BPOW_BASE","inputs":[],"outputs":[{"name":"","type":"uint256","internalType":"uint256"}],"stateMutability":"view"},{"type":"function","name":"badd","inputs":[{"name":"a","type":"uint256","internalType":"uint256"},{"name":"b","type":"uint256","internalType":"uint256"}],"outputs":[{"name":"","type":"uint256","internalType":"uint256"}],"stateMutability":"pure"},{"type":"function","name":"bdiv","inputs":[{"name":"a","type":"uint256","internalType":"uint256"},{"name":"b","type":"uint256","internalType":"uint256"}],"outputs":[{"name":"","type":"uint256","internalType":"uint256"}],"stateMutability":"pure"},{"type":"function","name":"bfloor","inputs":[{"name":"a","type":"uint256","internalType":"uint256"}],"outputs":[{"name":"","type":"uint256","internalType":"uint256"}],"stateMutability":"pure"},{"type":"function","name":"bmul","inputs":[{"name":"a","type":"uint256","internalType":"uint256"},{"name":"b","type":"uint256","internalType":"uint256"}],"outputs":[{"name":"","type":"uint256","internalType":"uint256"}],"stateMutability":"pure"},{"type":"function","name":"bpow","inputs":[{"name":"base","type":"uint256","internalType":"uint256"},{"name":"exp","type":"uint256","internalType":"uint256"}],"outputs":[{"name":"","type":"uint256","internalType":"uint256"}],"stateMutability":"pure"},{"type":"function","name":"bpowApprox","inputs":[{"name":"base","type":"uint256","internalType":"uint256"},{"name":"exp","type":"uint256","internalType":"uint256"},{"name":"precision","type":"uint256","internalType":"uint256"}],"outputs":[{"name":"","type":"uint256","internalType":"uint256"}],"stateMutability":"pure"},{"type":"function","name":"bpowi","inputs":[{"name":"a","type":"uint256","internalType":"uint256"},{"name":"n","type":"uint256","internalType":"uint256"}],"outputs":[{"name":"","type":"uint256","internalType":"uint256"}],"stateMutability":"pure"},{"type":"function","name":"bsub","inputs":[{"name":"a","type":"uint256","internalType":"uint256"},{"name":"b","type":"uint256","internalType":"uint256"}],"outputs":[{"name":"","type":"uint256","internalType":"uint256"}],"stateMutability":"pure"},{"type":"function","name":"bsubSign","inputs":[{"name":"a","type":"uint256","internalType":"uint256"},{"name":"b","type":"uint256","internalType":"uint256"}],"outputs":[{"name":"","type":"uint256","internalType":"uint256"},{"name":"","type":"bool","internalType":"bool"}],"stateMutability":"pure"},{"type":"function","name":"btoi","inputs":[{"name":"a","type":"uint256","internalType":"uint256"}],"outputs":[{"name":"","type":"uint256","internalType":"uint256"}],"stateMutability":"pure"},{"type":"function","name":"calcOutGivenIn","inputs":[{"name":"tokenBalanceIn","type":"uint256","internalType":"uint256"},{"name":"tokenWeightIn","type":"uint256","internalType":"uint256"},{"name":"tokenBalanceOut","type":"uint256","internalType":"uint256"},{"name":"tokenWeightOut","type":"uint256","internalType":"uint256"},{"name":"tokenAmountIn","type":"uint256","internalType":"uint256"},{"name":"swapFee","type":"uint256","internalType":"uint256"}],"outputs":[{"name":"tokenAmountOut","type":"uint256","internalType":"uint256"}],"stateMutability":"pure"},{"type":"function","name":"calcPoolOutGivenSingleIn","inputs":[{"name":"tokenBalanceIn","type":"uint256","internalType":"uint256"},{"name":"tokenWeightIn","type":"uint256","internalType":"uint256"},{"name":"poolSupply","type":"uint256","internalType":"uint256"},{"name":"totalWeight","type":"uint256","internalType":"uint256"},{"name":"tokenAmountIn","type":"uint256","internalType":"uint256"},{"name":"swapFee","type":"uint256","internalType":"uint256"}],"outputs":[{"name":"poolAmountOut","type":"uint256","internalType":"uint256"}],"stateMutability":"pure"}],"bytecode":{"object":"0x608060405234801561001057600080fd5b50610aad806100206000396000f3fe608060405234801561001057600080fd5b50600436106100f55760003560e01c8063859ae48e11610097578063ba9530a611610066578063ba9530a6146101dd578063bc694ea2146101f0578063cd660299146101f8578063d011f32a1461020b57600080fd5b8063859ae48e1461019c5780638656b653146101af5780638c051bf3146101c2578063ba019dab146101d557600080fd5b8063317223bc116100d3578063317223bc1461013b5780633cf3c7d41461014e578063743480cc146101615780637673eb111461018957600080fd5b80630b71b95c146100fa578063189d00ca146101205780631d0a82df14610128575b600080fd5b61010d610108366004610923565b61021e565b6040519081526020015b60405180910390f35b61010d61027e565b61010d610136366004610923565b610298565b61010d610149366004610945565b6103bd565b61010d61015c366004610923565b6103db565b61017461016f366004610923565b610438565b60408051928352901515602083015201610117565b61010d610197366004610923565b61046f565b61010d6101aa366004610945565b610594565b61010d6101bd36600461095e565b6105a8565b61010d6101d0366004610923565b610644565b61010d600181565b61010d6101eb36600461095e565b61071f565b61010d6107a0565b61010d610206366004610923565b6107bf565b61010d6102193660046109a1565b610835565b60008061022b83856109e3565b9050838110156102755760405162461bcd60e51b815260206004820152601060248201526f4552525f4144445f4f564552464c4f5760801b60448201526064015b60405180910390fd5b90505b92915050565b6102956402540be400670de0b6b3a7640000610a0c565b81565b600060018310156102e35760405162461bcd60e51b81526020600482015260156024820152744552525f42504f575f424153455f544f4f5f4c4f5760581b604482015260640161026c565b60016102f8670de0b6b3a76400006002610a20565b6103029190610a37565b83111561034a5760405162461bcd60e51b815260206004820152601660248201527508aa4a4be84a09eaebe8482a68abea89e9ebe90928e960531b604482015260640161026c565b6000610355836103bd565b9050600061036384836103db565b905060006103748661020685610594565b905081600003610388579250610278915050565b60006103a687846102196402540be400670de0b6b3a7640000610a0c565b90506103b28282610644565b979650505050505050565b6000670de0b6b3a76400006103d183610594565b6102789190610a20565b60008060006103ea8585610438565b9150915080156104305760405162461bcd60e51b81526020600482015260116024820152704552525f5355425f554e444552464c4f5760781b604482015260640161026c565b509392505050565b6000808284106104575761044c8385610a37565b600091509150610468565b6104618484610a37565b6001915091505b9250929050565b6000816000036104b05760405162461bcd60e51b815260206004820152600c60248201526b4552525f4449565f5a45524f60a01b604482015260640161026c565b60006104c4670de0b6b3a764000085610a20565b90508315806104e35750670de0b6b3a76400006104e18583610a0c565b145b6105225760405162461bcd60e51b815260206004820152601060248201526f11549497d1125597d25395115493905360821b604482015260640161026c565b600061052f600285610a0c565b61053990836109e3565b90508181101561057e5760405162461bcd60e51b815260206004820152601060248201526f11549497d1125597d25395115493905360821b604482015260640161026c565b600061058a8583610a0c565b9695505050505050565b6000610278670de0b6b3a764000083610a0c565b6000806105b5878661046f565b905060006105d46105ce670de0b6b3a7640000846103db565b85610644565b905060006105ee866101d0670de0b6b3a7640000856103db565b905060006105fc8b8361021e565b9050600061060a828d61046f565b905060006106188287610298565b90506000610626828d610644565b9050610632818d6103db565b9e9d5050505050505050505050505050565b6000806106518385610a20565b90508315806106685750826106668583610a0c565b145b6106a75760405162461bcd60e51b815260206004820152601060248201526f4552525f4d554c5f4f564552464c4f5760801b604482015260640161026c565b60006106bc6002670de0b6b3a7640000610a0c565b6106c690836109e3565b90508181101561070b5760405162461bcd60e51b815260206004820152601060248201526f4552525f4d554c5f4f564552464c4f5760801b604482015260640161026c565b600061058a670de0b6b3a764000083610a0c565b60008061072c878661046f565b90506000610742670de0b6b3a7640000856103db565b905061074e8582610644565b905060006107608a6101978c8561021e565b9050600061076e8285610298565b90506000610784670de0b6b3a7640000836103db565b90506107908a82610644565b9c9b505050505050505050505050565b60016107b5670de0b6b3a76400006002610a20565b6102959190610a37565b6000806107cd600284610a4a565b6000036107e257670de0b6b3a76400006107e4565b835b90506107f1600284610a0c565b92505b8215610275576108048485610644565b9350610811600284610a4a565b15610823576108208185610644565b90505b61082e600284610a0c565b92506107f4565b600082818061084c87670de0b6b3a7640000610438565b9092509050670de0b6b3a764000080600060015b88841061091457600061087b670de0b6b3a764000083610a20565b90506000806108968a61016f85670de0b6b3a76400006103db565b915091506108a8876101d0848c610644565b96506108b4878461046f565b9650866000036108c657505050610914565b87156108d0579315935b80156108da579315935b84156108f1576108ea86886103db565b95506108fe565b6108fb868861021e565b95505b505050808061090c90610a5e565b915050610860565b50909998505050505050505050565b6000806040838503121561093657600080fd5b50508035926020909101359150565b60006020828403121561095757600080fd5b5035919050565b60008060008060008060c0878903121561097757600080fd5b505084359660208601359650604086013595606081013595506080810135945060a0013592509050565b6000806000606084860312156109b657600080fd5b505081359360208301359350604090920135919050565b634e487b7160e01b600052601160045260246000fd5b80820180821115610278576102786109cd565b634e487b7160e01b600052601260045260246000fd5b600082610a1b57610a1b6109f6565b500490565b8082028115828204841417610278576102786109cd565b81810381811115610278576102786109cd565b600082610a5957610a596109f6565b500690565b600060018201610a7057610a706109cd565b506001019056fea2646970667358221220502927f5b9004166fcd74c0c280e59ad56dfb1e1b11ac7c54fbe9ec3d5c8233764736f6c63430008160033","linkReferences":{}},"methodIdentifiers":{"BPOW_PRECISION()":"189d00ca","MAX_BPOW_BASE()":"bc694ea2","MIN_BPOW_BASE()":"ba019dab","badd(uint256,uint256)":"0b71b95c","bdiv(uint256,uint256)":"7673eb11","bfloor(uint256)":"317223bc","bmul(uint256,uint256)":"8c051bf3","bpow(uint256,uint256)":"1d0a82df","bpowApprox(uint256,uint256,uint256)":"d011f32a","bpowi(uint256,uint256)":"cd660299","bsub(uint256,uint256)":"3cf3c7d4","bsubSign(uint256,uint256)":"743480cc","btoi(uint256)":"859ae48e","calcOutGivenIn(uint256,uint256,uint256,uint256,uint256,uint256)":"ba9530a6","calcPoolOutGivenSingleIn(uint256,uint256,uint256,uint256,uint256,uint256)":"8656b653"},"id":28}