{"abi":[{"type":"constructor","inputs":[{"name":"_poolLiquidityToken","type":"address","internalType":"address"}],"stateMutability":"nonpayable"},{"type":"function","name":"BPOW_PRECISION","inputs":[],"outputs":[{"name":"","type":"uint256","internalType":"uint256"}],"stateMutability":"view"},{"type":"function","name":"MAX_BPOW_BASE","inputs":[],"outputs":[{"name":"","type":"uint256","internalType":"uint256"}],"stateMutability":"view"},{"type":"function","name":"MIN_BPOW_BASE","inputs":[],"outputs":[{"name":"","type":"uint256","internalType":"uint256"}],"stateMutability":"view"},{"type":"function","name":"addToPool","inputs":[{"name":"_token","type":"address","internalType":"address"},{"name":"amount","type":"uint256","internalType":"uint256"}],"outputs":[{"name":"","type":"uint256","internalType":"uint256"},{"name":"","type":"uint256","internalType":"uint256"}],"stateMutability":"nonpayable"},{"type":"function","name":"calcOutGivenIn","inputs":[{"name":"tokenBalanceIn","type":"uint256","internalType":"uint256"},{"name":"tokenWeightIn","type":"uint256","internalType":"uint256"},{"name":"tokenBalanceOut","type":"uint256","internalType":"uint256"},{"name":"tokenWeightOut","type":"uint256","internalType":"uint256"},{"name":"tokenAmountIn","type":"uint256","internalType":"uint256"},{"name":"swapFee","type":"uint256","internalType":"uint256"}],"outputs":[{"name":"tokenAmountOut","type":"uint256","internalType":"uint256"}],"stateMutability":"pure"},{"type":"function","name":"calcPoolOutGivenSingleIn","inputs":[{"name":"tokenBalanceIn","type":"uint256","internalType":"uint256"},{"name":"tokenWeightIn","type":"uint256","internalType":"uint256"},{"name":"poolSupply","type":"uint256","internalType":"uint256"},{"name":"totalWeight","type":"uint256","internalType":"uint256"},{"name":"tokenAmountIn","type":"uint256","internalType":"uint256"},{"name":"swapFee","type":"uint256","internalType":"uint256"}],"outputs":[{"name":"poolAmountOut","type":"uint256","internalType":"uint256"}],"stateMutability":"pure"},{"type":"function","name":"calculateTokenWeights","inputs":[{"name":"_tokenA","type":"address","internalType":"address"},{"name":"_tokenB","type":"address","internalType":"address"}],"outputs":[{"name":"weightA","type":"uint256","internalType":"uint256"},{"name":"weightB","type":"uint256","internalType":"uint256"},{"name":"totalWeight","type":"uint256","internalType":"uint256"}],"stateMutability":"view"},{"type":"function","name":"feesAccured","inputs":[{"name":"","type":"address","internalType":"address"}],"outputs":[{"name":"","type":"uint256","internalType":"uint256"}],"stateMutability":"view"},{"type":"function","name":"getTokenWeight","inputs":[{"name":"token","type":"address","internalType":"address"}],"outputs":[{"name":"","type":"uint256","internalType":"uint256"}],"stateMutability":"view"},{"type":"function","name":"getTotalPoolBalance","inputs":[],"outputs":[{"name":"poolTotalBalance","type":"uint256","internalType":"uint256"}],"stateMutability":"view"},{"type":"function","name":"poolTokens","inputs":[{"name":"","type":"uint256","internalType":"uint256"}],"outputs":[{"name":"","type":"address","internalType":"address"}],"stateMutability":"view"},{"type":"function","name":"swap","inputs":[{"name":"_tokenIn","type":"address","internalType":"address"},{"name":"_tokenOut","type":"address","internalType":"address"},{"name":"amount","type":"uint256","internalType":"uint256"}],"outputs":[{"name":"","type":"uint256","internalType":"uint256"}],"stateMutability":"nonpayable"},{"type":"function","name":"tokenPresent","inputs":[{"name":"","type":"address","internalType":"address"}],"outputs":[{"name":"","type":"bool","internalType":"bool"}],"stateMutability":"view"},{"type":"function","name":"userDepositsInToken","inputs":[{"name":"","type":"address","internalType":"address"},{"name":"","type":"address","internalType":"address"}],"outputs":[{"name":"","type":"uint256","internalType":"uint256"}],"stateMutability":"view"},{"type":"function","name":"withdrawFromPool","inputs":[{"name":"_token","type":"address","internalType":"address"},{"name":"amount","type":"uint256","internalType":"uint256"},{"name":"lpTokenAmount","type":"uint256","internalType":"uint256"}],"outputs":[{"name":"","type":"uint256","internalType":"uint256"}],"stateMutability":"nonpayable"},{"type":"error","name":"DepositFailed","inputs":[]},{"type":"error","name":"InsufficientBalance","inputs":[]},{"type":"error","name":"TransferFailed","inputs":[]},{"type":"error","name":"ZeroAmount","inputs":[]}],"bytecode":{"object":"0x60a060405234801561001057600080fd5b50604051611af9380380611af983398101604081905261002f91610040565b6001600160a01b0316608052610070565b60006020828403121561005257600080fd5b81516001600160a01b038116811461006957600080fd5b9392505050565b608051611a526100a7600039600081816107e2015281816108b3015281816109de01528181610b170152610bc30152611a526000f3fe608060405234801561001057600080fd5b50600436106100f55760003560e01c80639fec94cb11610097578063d611411b11610066578063d611411b146101fa578063dced1a5a1461021a578063df791e5014610245578063e5df70831461025857600080fd5b80639fec94cb146101c4578063ba019dab146101d7578063ba9530a6146101df578063bc694ea2146101f257600080fd5b8063250aa683116100d3578063250aa683146101485780637776d1c21461015b5780638656b6531461018957806396bf230e1461019c57600080fd5b80630731e79a146100fa578063189d00ca14610138578063233fc9a214610140575b600080fd5b6101256101083660046117bf565b600160209081526000928352604080842090915290825290205481565b6040519081526020015b60405180910390f35b61012561028b565b6101256102a5565b6101256101563660046117f2565b610361565b61016e6101693660046117bf565b610428565b6040805193845260208401929092529082015260600161012f565b61012561019736600461180d565b610536565b6101af6101aa366004611850565b6105d7565b6040805192835260208301919091520161012f565b6101256101d236600461187a565b610962565b610125600181565b6101256101ed36600461180d565b610cbf565b610125610d45565b6101256102083660046117f2565b60026020526000908152604090205481565b61022d6102283660046118ad565b610d64565b6040516001600160a01b03909116815260200161012f565b6101256102533660046118c6565b610d8e565b61027b6102663660046117f2565b60006020819052908152604090205460ff1681565b604051901515815260200161012f565b6102a26402540be400670de0b6b3a764000061192e565b81565b6000805b60035460ff8216101561035d5760038160ff16815481106102cc576102cc611942565b6000918252602090912001546040516370a0823160e01b81523060048201526001600160a01b03909116906370a0823190602401602060405180830381865afa15801561031d573d6000803e3d6000fd5b505050506040513d601f19601f820116820180604052508101906103419190611958565b61034b9083611971565b915061035681611984565b90506102a9565b5090565b6001600160a01b03811660009081526020819052604081205460ff1661038957506000919050565b60006103936102a5565b9050806000036103a65750600192915050565b6040516370a0823160e01b81523060048201526000906001600160a01b038516906370a0823190602401602060405180830381865afa1580156103ed573d6000803e3d6000fd5b505050506040513d601f19601f820116820180604052508101906104119190611958565b9050600061041f82846111ed565b95945050505050565b6040516370a0823160e01b81523060048201526000908190819081906001600160a01b038716906370a0823190602401602060405180830381865afa158015610475573d6000803e3d6000fd5b505050506040513d601f19601f820116820180604052508101906104999190611958565b6040516370a0823160e01b81523060048201529091506000906001600160a01b038716906370a0823190602401602060405180830381865afa1580156104e3573d6000803e3d6000fd5b505050506040513d601f19601f820116820180604052508101906105079190611958565b90506105138183611971565b925061051f82846111ed565b945061052b81846111ed565b935050509250925092565b60008061054387866111ed565b9050600061056261055c670de0b6b3a764000084611314565b85611371565b905060006105818661057c670de0b6b3a764000085611314565b611371565b9050600061058f8b8361144c565b9050600061059d828d6111ed565b905060006105ab82876114a5565b905060006105b9828d611371565b90506105c5818d611314565b9e9d5050505050505050505050505050565b6001600160a01b0382166000908152602081905260408120548190849060ff16610661576001600160a01b0385166000818152602081905260408120805460ff191660019081179091556003805491820181559091527fc2575a0e9e593c00f959f8c92f12db2869c3395a3b0502d05e2516446f71f85b0180546001600160a01b03191690911790555b6040516370a0823160e01b81523060048201526000906001600160a01b038316906370a0823190602401602060405180830381865afa1580156106a8573d6000803e3d6000fd5b505050506040513d601f19601f820116820180604052508101906106cc9190611958565b6040516323b872dd60e01b8152336004820152306024820152604481018790529091506001600160a01b038316906323b872dd906064016020604051808303816000875af1158015610722573d6000803e3d6000fd5b505050506040513d601f19601f8201168201806040525081019061074691906119a3565b610763576040516379cacff160e01b815260040160405180910390fd5b6040516370a0823160e01b81523060048201526000906001600160a01b038416906370a0823190602401602060405180830381865afa1580156107aa573d6000803e3d6000fd5b505050506040513d601f19601f820116820180604052508101906107ce9190611958565b905060006107dc83836119c5565b905060007f00000000000000000000000000000000000000000000000000000000000000006001600160a01b03166318160ddd6040518163ffffffff1660e01b8152600401602060405180830381865afa15801561083e573d6000803e3d6000fd5b505050506040513d601f19601f820116820180604052508101906108629190611958565b9050600061086f8a610361565b9050600061087b6102a5565b905060006108948684868589666a94d74f430000610536565b6040516308934a5f60e31b8152336004820152602481018290529091507f00000000000000000000000000000000000000000000000000000000000000006001600160a01b03169063449a52f890604401600060405180830381600087803b1580156108ff57600080fd5b505af1158015610913573d6000803e3d6000fd5b505050506001600160a01b038c1660009081526001602090815260408083203384529091528120805487929061094a908490611971565b909155509499509750505050505050505b9250929050565b6001600160a01b03831660009081526001602090815260408083203384529091528120548311156109a657604051631e9acf1760e31b815260040160405180910390fd5b816000036109c757604051631f2a200560e01b815260040160405180910390fd5b6040516370a0823160e01b815233600482015282907f00000000000000000000000000000000000000000000000000000000000000006001600160a01b0316906370a0823190602401602060405180830381865afa158015610a2d573d6000803e3d6000fd5b505050506040513d601f19601f82011682018060405250810190610a519190611958565b1015610ab05760405162461bcd60e51b8152602060048201526024808201527f496e73756666696369656e74204c697175696469747920546f6b656e2042616c604482015263616e636560e01b60648201526084015b60405180910390fd5b6001600160a01b038416600090815260016020908152604080832033845290915281208054859290610ae39084906119c5565b90915550506001600160a01b0380851660009081526002602090815260408083205481516318160ddd60e01b8152915190947f000000000000000000000000000000000000000000000000000000000000000016926318160ddd92600480820193918290030181865afa158015610b5e573d6000803e3d6000fd5b505050506040513d601f19601f82011682018060405250810190610b829190611958565b610b8c83866119d8565b610b96919061192e565b90506000610ba48683611971565b60405163079cc67960e41b8152336004820152602481018790529091507f00000000000000000000000000000000000000000000000000000000000000006001600160a01b0316906379cc679090604401600060405180830381600087803b158015610c0f57600080fd5b505af1158015610c23573d6000803e3d6000fd5b505060405163a9059cbb60e01b8152336004820152602481018490526001600160a01b038a16925063a9059cbb91506044016020604051808303816000875af1158015610c74573d6000803e3d6000fd5b505050506040513d601f19601f82011682018060405250810190610c9891906119a3565b610cb5576040516312171d8360e31b815260040160405180910390fd5b9695505050505050565b600080610ccc87866111ed565b90506000610ce2670de0b6b3a764000085611314565b9050610cee8582611371565b90506000610d058a610d008c8561144c565b6111ed565b90506000610d1382856114a5565b90506000610d29670de0b6b3a764000083611314565b9050610d358a82611371565b9c9b505050505050505050505050565b6001610d5a670de0b6b3a764000060026119d8565b6102a291906119c5565b60038181548110610d7457600080fd5b6000918252602090912001546001600160a01b0316905081565b600081600003610db157604051631f2a200560e01b815260040160405180910390fd5b6001600160a01b03841660009081526020819052604090205460ff168015610df157506001600160a01b03831660009081526020819052604090205460ff165b610e3d5760405162461bcd60e51b815260206004820181905260248201527f546f6b656e205061697220446f65736e277420657869737420696e20506f6f6c6044820152606401610aa7565b6040516370a0823160e01b815230600482015282906001600160a01b038516906370a0823190602401602060405180830381865afa158015610e83573d6000803e3d6000fd5b505050506040513d601f19601f82011682018060405250810190610ea79190611958565b11610ef45760405162461bcd60e51b815260206004820152601960248201527f506f6c6c2042616c616e636520496e73756666696369656e74000000000000006044820152606401610aa7565b6040516370a0823160e01b81523060048201526000906001600160a01b038616906370a0823190602401602060405180830381865afa158015610f3b573d6000803e3d6000fd5b505050506040513d601f19601f82011682018060405250810190610f5f9190611958565b6040516323b872dd60e01b8152336004820152306024820152604481018590529091506001600160a01b038616906323b872dd906064016020604051808303816000875af1158015610fb5573d6000803e3d6000fd5b505050506040513d601f19601f82011682018060405250810190610fd991906119a3565b610ff6576040516379cacff160e01b815260040160405180910390fd5b6040516370a0823160e01b81523060048201526000906001600160a01b038716906370a0823190602401602060405180830381865afa15801561103d573d6000803e3d6000fd5b505050506040513d601f19601f820116820180604052508101906110619190611958565b9050600061106f83836119c5565b9050600060646110806003846119d8565b61108a919061192e565b9050600061109882846119c5565b6001600160a01b038a166000908152600260205260408120805492935084929091906110c5908490611971565b9091555060009050806110d88b8b610428565b506040516370a0823160e01b815230600482015291935091506000906001600160a01b038c16906370a0823190602401602060405180830381865afa158015611125573d6000803e3d6000fd5b505050506040513d601f19601f820116820180604052508101906111499190611958565b9050600061115c88858486896003610cbf565b60405163a9059cbb60e01b8152336004820152602481018290529091506001600160a01b038d169063a9059cbb906044016020604051808303816000875af11580156111ac573d6000803e3d6000fd5b505050506040513d601f19601f820116820180604052508101906111d091906119a3565b610d35576040516312171d8360e31b815260040160405180910390fd5b60008160000361122e5760405162461bcd60e51b815260206004820152600c60248201526b4552525f4449565f5a45524f60a01b6044820152606401610aa7565b6000611242670de0b6b3a7640000856119d8565b90508315806112615750670de0b6b3a764000061125f858361192e565b145b6112a05760405162461bcd60e51b815260206004820152601060248201526f11549497d1125597d25395115493905360821b6044820152606401610aa7565b60006112ad60028561192e565b6112b79083611971565b9050818110156112fc5760405162461bcd60e51b815260206004820152601060248201526f11549497d1125597d25395115493905360821b6044820152606401610aa7565b6000611308858361192e565b93505050505b92915050565b600080600061132385856115d4565b9150915080156113695760405162461bcd60e51b81526020600482015260116024820152704552525f5355425f554e444552464c4f5760781b6044820152606401610aa7565b509392505050565b60008061137e83856119d8565b9050831580611395575082611393858361192e565b145b6113d45760405162461bcd60e51b815260206004820152601060248201526f4552525f4d554c5f4f564552464c4f5760801b6044820152606401610aa7565b60006113e96002670de0b6b3a764000061192e565b6113f39083611971565b9050818110156114385760405162461bcd60e51b815260206004820152601060248201526f4552525f4d554c5f4f564552464c4f5760801b6044820152606401610aa7565b6000611308670de0b6b3a76400008361192e565b6000806114598385611971565b90508381101561149e5760405162461bcd60e51b815260206004820152601060248201526f4552525f4144445f4f564552464c4f5760801b6044820152606401610aa7565b9392505050565b600060018310156114f05760405162461bcd60e51b81526020600482015260156024820152744552525f42504f575f424153455f544f4f5f4c4f5760581b6044820152606401610aa7565b6001611505670de0b6b3a764000060026119d8565b61150f91906119c5565b8311156115575760405162461bcd60e51b815260206004820152601660248201527508aa4a4be84a09eaebe8482a68abea89e9ebe90928e960531b6044820152606401610aa7565b600061156283611608565b905060006115708483611314565b905060006115868661158185611626565b61163a565b90508160000361159a57925061130e915050565b60006115bd87846115b86402540be400670de0b6b3a764000061192e565b6116b0565b90506115c98282611371565b979650505050505050565b6000808284106115f3576115e883856119c5565b60009150915061095b565b6115fd84846119c5565b60019150915061095b565b6000670de0b6b3a764000061161c83611626565b61130e91906119d8565b600061130e670de0b6b3a76400008361192e565b6000806116486002846119ef565b60000361165d57670de0b6b3a764000061165f565b835b905061166c60028461192e565b92505b821561149e5761167f8485611371565b935061168c6002846119ef565b1561169e5761169b8185611371565b90505b6116a960028461192e565b925061166f565b60008281806116c787670de0b6b3a76400006115d4565b9092509050670de0b6b3a764000080600060015b8884106117945760006116f6670de0b6b3a7640000836119d8565b90506000806117168a61171185670de0b6b3a7640000611314565b6115d4565b915091506117288761057c848c611371565b965061173487846111ed565b96508660000361174657505050611794565b8715611750579315935b801561175a579315935b84156117715761176a8688611314565b955061177e565b61177b868861144c565b95505b505050808061178c90611a03565b9150506116db565b50909998505050505050505050565b80356001600160a01b03811681146117ba57600080fd5b919050565b600080604083850312156117d257600080fd5b6117db836117a3565b91506117e9602084016117a3565b90509250929050565b60006020828403121561180457600080fd5b61149e826117a3565b60008060008060008060c0878903121561182657600080fd5b505084359660208601359650604086013595606081013595506080810135945060a0013592509050565b6000806040838503121561186357600080fd5b61186c836117a3565b946020939093013593505050565b60008060006060848603121561188f57600080fd5b611898846117a3565b95602085013595506040909401359392505050565b6000602082840312156118bf57600080fd5b5035919050565b6000806000606084860312156118db57600080fd5b6118e4846117a3565b92506118f2602085016117a3565b9150604084013590509250925092565b634e487b7160e01b600052601260045260246000fd5b634e487b7160e01b600052601160045260246000fd5b60008261193d5761193d611902565b500490565b634e487b7160e01b600052603260045260246000fd5b60006020828403121561196a57600080fd5b5051919050565b8082018082111561130e5761130e611918565b600060ff821660ff810361199a5761199a611918565b60010192915050565b6000602082840312156119b557600080fd5b8151801515811461149e57600080fd5b8181038181111561130e5761130e611918565b808202811582820484141761130e5761130e611918565b6000826119fe576119fe611902565b500690565b600060018201611a1557611a15611918565b506001019056fea26469706673582212204edadfd3331307b8e2c9ea0d074d718dfdfb453dcda2cf54c60fbcea01ed53bf64736f6c63430008160033","linkReferences":{}},"methodIdentifiers":{"BPOW_PRECISION()":"189d00ca","MAX_BPOW_BASE()":"bc694ea2","MIN_BPOW_BASE()":"ba019dab","addToPool(address,uint256)":"96bf230e","calcOutGivenIn(uint256,uint256,uint256,uint256,uint256,uint256)":"ba9530a6","calcPoolOutGivenSingleIn(uint256,uint256,uint256,uint256,uint256,uint256)":"8656b653","calculateTokenWeights(address,address)":"7776d1c2","feesAccured(address)":"d611411b","getTokenWeight(address)":"250aa683","getTotalPoolBalance()":"233fc9a2","poolTokens(uint256)":"dced1a5a","swap(address,address,uint256)":"df791e50","tokenPresent(address)":"e5df7083","userDepositsInToken(address,address)":"0731e79a","withdrawFromPool(address,uint256,uint256)":"9fec94cb"},"id":27}