{"abi":[{"type":"constructor","inputs":[{"name":"_poolLiquidityToken","type":"address","internalType":"address"}],"stateMutability":"nonpayable"},{"type":"function","name":"BPOW_PRECISION","inputs":[],"outputs":[{"name":"","type":"uint256","internalType":"uint256"}],"stateMutability":"view"},{"type":"function","name":"MAX_BPOW_BASE","inputs":[],"outputs":[{"name":"","type":"uint256","internalType":"uint256"}],"stateMutability":"view"},{"type":"function","name":"MIN_BPOW_BASE","inputs":[],"outputs":[{"name":"","type":"uint256","internalType":"uint256"}],"stateMutability":"view"},{"type":"function","name":"addToPool","inputs":[{"name":"_token","type":"address","internalType":"address"},{"name":"amount","type":"uint256","internalType":"uint256"}],"outputs":[{"name":"","type":"uint256","internalType":"uint256"},{"name":"","type":"uint256","internalType":"uint256"}],"stateMutability":"nonpayable"},{"type":"function","name":"badd","inputs":[{"name":"a","type":"uint256","internalType":"uint256"},{"name":"b","type":"uint256","internalType":"uint256"}],"outputs":[{"name":"","type":"uint256","internalType":"uint256"}],"stateMutability":"pure"},{"type":"function","name":"bdiv","inputs":[{"name":"a","type":"uint256","internalType":"uint256"},{"name":"b","type":"uint256","internalType":"uint256"}],"outputs":[{"name":"","type":"uint256","internalType":"uint256"}],"stateMutability":"pure"},{"type":"function","name":"bfloor","inputs":[{"name":"a","type":"uint256","internalType":"uint256"}],"outputs":[{"name":"","type":"uint256","internalType":"uint256"}],"stateMutability":"pure"},{"type":"function","name":"bmul","inputs":[{"name":"a","type":"uint256","internalType":"uint256"},{"name":"b","type":"uint256","internalType":"uint256"}],"outputs":[{"name":"","type":"uint256","internalType":"uint256"}],"stateMutability":"pure"},{"type":"function","name":"bpow","inputs":[{"name":"base","type":"uint256","internalType":"uint256"},{"name":"exp","type":"uint256","internalType":"uint256"}],"outputs":[{"name":"","type":"uint256","internalType":"uint256"}],"stateMutability":"pure"},{"type":"function","name":"bpowApprox","inputs":[{"name":"base","type":"uint256","internalType":"uint256"},{"name":"exp","type":"uint256","internalType":"uint256"},{"name":"precision","type":"uint256","internalType":"uint256"}],"outputs":[{"name":"","type":"uint256","internalType":"uint256"}],"stateMutability":"pure"},{"type":"function","name":"bpowi","inputs":[{"name":"a","type":"uint256","internalType":"uint256"},{"name":"n","type":"uint256","internalType":"uint256"}],"outputs":[{"name":"","type":"uint256","internalType":"uint256"}],"stateMutability":"pure"},{"type":"function","name":"bsub","inputs":[{"name":"a","type":"uint256","internalType":"uint256"},{"name":"b","type":"uint256","internalType":"uint256"}],"outputs":[{"name":"","type":"uint256","internalType":"uint256"}],"stateMutability":"pure"},{"type":"function","name":"bsubSign","inputs":[{"name":"a","type":"uint256","internalType":"uint256"},{"name":"b","type":"uint256","internalType":"uint256"}],"outputs":[{"name":"","type":"uint256","internalType":"uint256"},{"name":"","type":"bool","internalType":"bool"}],"stateMutability":"pure"},{"type":"function","name":"btoi","inputs":[{"name":"a","type":"uint256","internalType":"uint256"}],"outputs":[{"name":"","type":"uint256","internalType":"uint256"}],"stateMutability":"pure"},{"type":"function","name":"calcOutGivenIn","inputs":[{"name":"tokenBalanceIn","type":"uint256","internalType":"uint256"},{"name":"tokenWeightIn","type":"uint256","internalType":"uint256"},{"name":"tokenBalanceOut","type":"uint256","internalType":"uint256"},{"name":"tokenWeightOut","type":"uint256","internalType":"uint256"},{"name":"tokenAmountIn","type":"uint256","internalType":"uint256"},{"name":"swapFee","type":"uint256","internalType":"uint256"}],"outputs":[{"name":"tokenAmountOut","type":"uint256","internalType":"uint256"}],"stateMutability":"pure"},{"type":"function","name":"calcPoolOutGivenSingleIn","inputs":[{"name":"tokenBalanceIn","type":"uint256","internalType":"uint256"},{"name":"tokenWeightIn","type":"uint256","internalType":"uint256"},{"name":"poolSupply","type":"uint256","internalType":"uint256"},{"name":"totalWeight","type":"uint256","internalType":"uint256"},{"name":"tokenAmountIn","type":"uint256","internalType":"uint256"},{"name":"swapFee","type":"uint256","internalType":"uint256"}],"outputs":[{"name":"poolAmountOut","type":"uint256","internalType":"uint256"}],"stateMutability":"pure"},{"type":"function","name":"calculateTokenWeights","inputs":[{"name":"_tokenA","type":"address","internalType":"address"},{"name":"_tokenB","type":"address","internalType":"address"}],"outputs":[{"name":"weightA","type":"uint256","internalType":"uint256"},{"name":"weightB","type":"uint256","internalType":"uint256"},{"name":"totalWeight","type":"uint256","internalType":"uint256"}],"stateMutability":"view"},{"type":"function","name":"feesAccured","inputs":[{"name":"","type":"address","internalType":"address"}],"outputs":[{"name":"","type":"uint256","internalType":"uint256"}],"stateMutability":"view"},{"type":"function","name":"getTokenWeight","inputs":[{"name":"token","type":"address","internalType":"address"}],"outputs":[{"name":"","type":"uint256","internalType":"uint256"}],"stateMutability":"view"},{"type":"function","name":"getTotalPoolBalance","inputs":[],"outputs":[{"name":"poolTotalBalance","type":"uint256","internalType":"uint256"}],"stateMutability":"view"},{"type":"function","name":"poolTokens","inputs":[{"name":"","type":"uint256","internalType":"uint256"}],"outputs":[{"name":"","type":"address","internalType":"address"}],"stateMutability":"view"},{"type":"function","name":"swap","inputs":[{"name":"_tokenIn","type":"address","internalType":"address"},{"name":"_tokenOut","type":"address","internalType":"address"},{"name":"amount","type":"uint256","internalType":"uint256"}],"outputs":[{"name":"","type":"uint256","internalType":"uint256"}],"stateMutability":"nonpayable"},{"type":"function","name":"tokenPresent","inputs":[{"name":"","type":"address","internalType":"address"}],"outputs":[{"name":"","type":"bool","internalType":"bool"}],"stateMutability":"view"},{"type":"function","name":"userDepositsInToken","inputs":[{"name":"","type":"address","internalType":"address"},{"name":"","type":"address","internalType":"address"}],"outputs":[{"name":"","type":"uint256","internalType":"uint256"}],"stateMutability":"view"},{"type":"function","name":"withdrawFromPool","inputs":[{"name":"_token","type":"address","internalType":"address"},{"name":"amount","type":"uint256","internalType":"uint256"},{"name":"lpTokenAmount","type":"uint256","internalType":"uint256"}],"outputs":[{"name":"","type":"uint256","internalType":"uint256"}],"stateMutability":"nonpayable"},{"type":"error","name":"DepositFailed","inputs":[]},{"type":"error","name":"InsufficientBalance","inputs":[]},{"type":"error","name":"TransferFailed","inputs":[]},{"type":"error","name":"ZeroAmount","inputs":[]}],"bytecode":{"object":"0x60a060405234801561001057600080fd5b50604051611b8c380380611b8c83398101604081905261002f91610040565b6001600160a01b0316608052610070565b60006020828403121561005257600080fd5b81516001600160a01b038116811461006957600080fd5b9392505050565b608051611aec6100a060003960008181610d7901528181610e4401528181610fbd01526110690152611aec6000f3fe608060405234801561001057600080fd5b50600436106101735760003560e01c80638656b653116100de578063bc694ea211610097578063d611411b11610071578063d611411b1461034b578063dced1a5a1461036b578063df791e5014610396578063e5df7083146103a957600080fd5b8063bc694ea21461031d578063cd66029914610325578063d011f32a1461033857600080fd5b80638656b653146102a15780638c051bf3146102b457806396bf230e146102c75780639fec94cb146102ef578063ba019dab14610302578063ba9530a61461030a57600080fd5b8063317223bc11610130578063317223bc146101ff5780633cf3c7d414610212578063743480cc146102255780637673eb111461024d5780637776d1c214610260578063859ae48e1461028e57600080fd5b80630731e79a146101785780630b71b95c146101b6578063189d00ca146101c95780631d0a82df146101d1578063233fc9a2146101e4578063250aa683146101ec575b600080fd5b6101a3610186366004611804565b600160209081526000928352604080842090915290825290205481565b6040519081526020015b60405180910390f35b6101a36101c4366004611837565b6103dc565b6101a361043c565b6101a36101df366004611837565b610456565b6101a361057b565b6101a36101fa366004611859565b610637565b6101a361020d36600461187b565b6106fe565b6101a3610220366004611837565b61071c565b610238610233366004611837565b610779565b604080519283529015156020830152016101ad565b6101a361025b366004611837565b6107b0565b61027361026e366004611804565b6108d5565b604080519384526020840192909252908201526060016101ad565b6101a361029c36600461187b565b6109e3565b6101a36102af366004611894565b6109f7565b6101a36102c2366004611837565b610a93565b6102da6102d53660046118d7565b610b6e565b604080519283526020830191909152016101ad565b6101a36102fd366004611901565b610ef1565b6101a3600181565b6101a3610318366004611894565b61115b565b6101a36111dc565b6101a3610333366004611837565b6111fb565b6101a3610346366004611934565b611271565b6101a3610359366004611859565b60026020526000908152604090205481565b61037e61037936600461187b565b61135f565b6040516001600160a01b0390911681526020016101ad565b6101a36103a4366004611960565b611389565b6103cc6103b7366004611859565b60006020819052908152604090205460ff1681565b60405190151581526020016101ad565b6000806103e983856119b2565b9050838110156104335760405162461bcd60e51b815260206004820152601060248201526f4552525f4144445f4f564552464c4f5760801b60448201526064015b60405180910390fd5b90505b92915050565b6104536402540be400670de0b6b3a76400006119db565b81565b600060018310156104a15760405162461bcd60e51b81526020600482015260156024820152744552525f42504f575f424153455f544f4f5f4c4f5760581b604482015260640161042a565b60016104b6670de0b6b3a764000060026119ef565b6104c09190611a06565b8311156105085760405162461bcd60e51b815260206004820152601660248201527508aa4a4be84a09eaebe8482a68abea89e9ebe90928e960531b604482015260640161042a565b6000610513836106fe565b90506000610521848361071c565b9050600061053286610333856109e3565b905081600003610546579250610436915050565b600061056487846103466402540be400670de0b6b3a76400006119db565b90506105708282610a93565b979650505050505050565b6000805b60035460ff821610156106335760038160ff16815481106105a2576105a2611a19565b6000918252602090912001546040516370a0823160e01b81523060048201526001600160a01b03909116906370a0823190602401602060405180830381865afa1580156105f3573d6000803e3d6000fd5b505050506040513d601f19601f820116820180604052508101906106179190611a2f565b61062190836119b2565b915061062c81611a48565b905061057f565b5090565b6001600160a01b03811660009081526020819052604081205460ff1661065f57506000919050565b600061066961057b565b90508060000361067c5750600192915050565b6040516370a0823160e01b81523060048201526000906001600160a01b038516906370a0823190602401602060405180830381865afa1580156106c3573d6000803e3d6000fd5b505050506040513d601f19601f820116820180604052508101906106e79190611a2f565b905060006106f582846107b0565b95945050505050565b6000670de0b6b3a7640000610712836109e3565b61043691906119ef565b600080600061072b8585610779565b9150915080156107715760405162461bcd60e51b81526020600482015260116024820152704552525f5355425f554e444552464c4f5760781b604482015260640161042a565b509392505050565b6000808284106107985761078d8385611a06565b6000915091506107a9565b6107a28484611a06565b6001915091505b9250929050565b6000816000036107f15760405162461bcd60e51b815260206004820152600c60248201526b4552525f4449565f5a45524f60a01b604482015260640161042a565b6000610805670de0b6b3a7640000856119ef565b90508315806108245750670de0b6b3a764000061082285836119db565b145b6108635760405162461bcd60e51b815260206004820152601060248201526f11549497d1125597d25395115493905360821b604482015260640161042a565b60006108706002856119db565b61087a90836119b2565b9050818110156108bf5760405162461bcd60e51b815260206004820152601060248201526f11549497d1125597d25395115493905360821b604482015260640161042a565b60006108cb85836119db565b9695505050505050565b6040516370a0823160e01b81523060048201526000908190819081906001600160a01b038716906370a0823190602401602060405180830381865afa158015610922573d6000803e3d6000fd5b505050506040513d601f19601f820116820180604052508101906109469190611a2f565b6040516370a0823160e01b81523060048201529091506000906001600160a01b038716906370a0823190602401602060405180830381865afa158015610990573d6000803e3d6000fd5b505050506040513d601f19601f820116820180604052508101906109b49190611a2f565b90506109c081836119b2565b92506109cc82846107b0565b94506109d881846107b0565b935050509250925092565b6000610436670de0b6b3a7640000836119db565b600080610a0487866107b0565b90506000610a23610a1d670de0b6b3a76400008461071c565b85610a93565b90506000610a3d866102c2670de0b6b3a76400008561071c565b90506000610a4b8b836103dc565b90506000610a59828d6107b0565b90506000610a678287610456565b90506000610a75828d610a93565b9050610a81818d61071c565b9e9d5050505050505050505050505050565b600080610aa083856119ef565b9050831580610ab7575082610ab585836119db565b145b610af65760405162461bcd60e51b815260206004820152601060248201526f4552525f4d554c5f4f564552464c4f5760801b604482015260640161042a565b6000610b0b6002670de0b6b3a76400006119db565b610b1590836119b2565b905081811015610b5a5760405162461bcd60e51b815260206004820152601060248201526f4552525f4d554c5f4f564552464c4f5760801b604482015260640161042a565b60006108cb670de0b6b3a7640000836119db565b6001600160a01b0382166000908152602081905260408120548190849060ff16610bf8576001600160a01b0385166000818152602081905260408120805460ff191660019081179091556003805491820181559091527fc2575a0e9e593c00f959f8c92f12db2869c3395a3b0502d05e2516446f71f85b0180546001600160a01b03191690911790555b6040516370a0823160e01b81523060048201526000906001600160a01b038316906370a0823190602401602060405180830381865afa158015610c3f573d6000803e3d6000fd5b505050506040513d601f19601f82011682018060405250810190610c639190611a2f565b6040516323b872dd60e01b8152336004820152306024820152604481018790529091506001600160a01b038316906323b872dd906064016020604051808303816000875af1158015610cb9573d6000803e3d6000fd5b505050506040513d601f19601f82011682018060405250810190610cdd9190611a67565b610cfa576040516379cacff160e01b815260040160405180910390fd5b6040516370a0823160e01b81523060048201526000906001600160a01b038416906370a0823190602401602060405180830381865afa158015610d41573d6000803e3d6000fd5b505050506040513d601f19601f82011682018060405250810190610d659190611a2f565b90506000610d738383611a06565b905060007f00000000000000000000000000000000000000000000000000000000000000006001600160a01b03166318160ddd6040518163ffffffff1660e01b8152600401602060405180830381865afa158015610dd5573d6000803e3d6000fd5b505050506040513d601f19601f82011682018060405250810190610df99190611a2f565b90506000610e068a610637565b90506000610e1261057b565b90506000610e25868486858960036109f7565b6040516308934a5f60e31b8152336004820152602481018290529091507f00000000000000000000000000000000000000000000000000000000000000006001600160a01b03169063449a52f890604401600060405180830381600087803b158015610e9057600080fd5b505af1158015610ea4573d6000803e3d6000fd5b505050506001600160a01b038c16600090815260016020908152604080832033845290915281208054879290610edb9084906119b2565b90915550949c909b509950505050505050505050565b6001600160a01b0383166000908152600160209081526040808320338452909152812054831115610f3557604051631e9acf1760e31b815260040160405180910390fd5b81600003610f5657604051631f2a200560e01b815260040160405180910390fd5b6001600160a01b038416600090815260016020908152604080832033845290915281208054859290610f89908490611a06565b90915550506001600160a01b0380851660009081526002602090815260408083205481516318160ddd60e01b8152915190947f000000000000000000000000000000000000000000000000000000000000000016926318160ddd92600480820193918290030181865afa158015611004573d6000803e3d6000fd5b505050506040513d601f19601f820116820180604052508101906110289190611a2f565b61103283866119ef565b61103c91906119db565b9050600061104a86836119b2565b60405163079cc67960e41b8152336004820152602481018790529091507f00000000000000000000000000000000000000000000000000000000000000006001600160a01b0316906379cc679090604401600060405180830381600087803b1580156110b557600080fd5b505af11580156110c9573d6000803e3d6000fd5b505060405163a9059cbb60e01b8152336004820152602481018490526001600160a01b038a16925063a9059cbb91506044016020604051808303816000875af115801561111a573d6000803e3d6000fd5b505050506040513d601f19601f8201168201806040525081019061113e9190611a67565b6108cb576040516312171d8360e31b815260040160405180910390fd5b60008061116887866107b0565b9050600061117e670de0b6b3a76400008561071c565b905061118a8582610a93565b9050600061119c8a61025b8c856103dc565b905060006111aa8285610456565b905060006111c0670de0b6b3a76400008361071c565b90506111cc8a82610a93565b9c9b505050505050505050505050565b60016111f1670de0b6b3a764000060026119ef565b6104539190611a06565b600080611209600284611a89565b60000361121e57670de0b6b3a7640000611220565b835b905061122d6002846119db565b92505b8215610433576112408485610a93565b935061124d600284611a89565b1561125f5761125c8185610a93565b90505b61126a6002846119db565b9250611230565b600082818061128887670de0b6b3a7640000610779565b9092509050670de0b6b3a764000080600060015b8884106113505760006112b7670de0b6b3a7640000836119ef565b90506000806112d28a61023385670de0b6b3a764000061071c565b915091506112e4876102c2848c610a93565b96506112f087846107b0565b96508660000361130257505050611350565b871561130c579315935b8015611316579315935b841561132d57611326868861071c565b955061133a565b61133786886103dc565b95505b505050808061134890611a9d565b91505061129c565b50909998505050505050505050565b6003818154811061136f57600080fd5b6000918252602090912001546001600160a01b0316905081565b6000816000036113ac57604051631f2a200560e01b815260040160405180910390fd5b6001600160a01b03841660009081526020819052604090205460ff1680156113ec57506001600160a01b03831660009081526020819052604090205460ff165b6114385760405162461bcd60e51b815260206004820181905260248201527f546f6b656e205061697220446f65736e277420657869737420696e20506f6f6c604482015260640161042a565b6040516370a0823160e01b815230600482015282906001600160a01b038516906370a0823190602401602060405180830381865afa15801561147e573d6000803e3d6000fd5b505050506040513d601f19601f820116820180604052508101906114a29190611a2f565b116114ef5760405162461bcd60e51b815260206004820152601960248201527f506f6c6c2042616c616e636520496e73756666696369656e7400000000000000604482015260640161042a565b6040516370a0823160e01b81523060048201526000906001600160a01b038616906370a0823190602401602060405180830381865afa158015611536573d6000803e3d6000fd5b505050506040513d601f19601f8201168201806040525081019061155a9190611a2f565b6040516323b872dd60e01b8152336004820152306024820152604481018590529091506001600160a01b038616906323b872dd906064016020604051808303816000875af11580156115b0573d6000803e3d6000fd5b505050506040513d601f19601f820116820180604052508101906115d49190611a67565b6115f1576040516379cacff160e01b815260040160405180910390fd5b6040516370a0823160e01b81523060048201526000906001600160a01b038716906370a0823190602401602060405180830381865afa158015611638573d6000803e3d6000fd5b505050506040513d601f19601f8201168201806040525081019061165c9190611a2f565b9050600061166a8383611a06565b90506000606461167b6003846119ef565b61168591906119db565b905060006116938284611a06565b6001600160a01b038a166000908152600260205260408120805492935084929091906116c09084906119b2565b9091555060009050806116d38b8b6108d5565b506040516370a0823160e01b815230600482015291935091506000906001600160a01b038c16906370a0823190602401602060405180830381865afa158015611720573d6000803e3d6000fd5b505050506040513d601f19601f820116820180604052508101906117449190611a2f565b905060006117578885848689600361115b565b60405163a9059cbb60e01b8152336004820152602481018290529091506001600160a01b038d169063a9059cbb906044016020604051808303816000875af11580156117a7573d6000803e3d6000fd5b505050506040513d601f19601f820116820180604052508101906117cb9190611a67565b6111cc576040516312171d8360e31b815260040160405180910390fd5b80356001600160a01b03811681146117ff57600080fd5b919050565b6000806040838503121561181757600080fd5b611820836117e8565b915061182e602084016117e8565b90509250929050565b6000806040838503121561184a57600080fd5b50508035926020909101359150565b60006020828403121561186b57600080fd5b611874826117e8565b9392505050565b60006020828403121561188d57600080fd5b5035919050565b60008060008060008060c087890312156118ad57600080fd5b505084359660208601359650604086013595606081013595506080810135945060a0013592509050565b600080604083850312156118ea57600080fd5b6118f3836117e8565b946020939093013593505050565b60008060006060848603121561191657600080fd5b61191f846117e8565b95602085013595506040909401359392505050565b60008060006060848603121561194957600080fd5b505081359360208301359350604090920135919050565b60008060006060848603121561197557600080fd5b61197e846117e8565b925061198c602085016117e8565b9150604084013590509250925092565b634e487b7160e01b600052601160045260246000fd5b808201808211156104365761043661199c565b634e487b7160e01b600052601260045260246000fd5b6000826119ea576119ea6119c5565b500490565b80820281158282048414176104365761043661199c565b818103818111156104365761043661199c565b634e487b7160e01b600052603260045260246000fd5b600060208284031215611a4157600080fd5b5051919050565b600060ff821660ff8103611a5e57611a5e61199c565b60010192915050565b600060208284031215611a7957600080fd5b8151801515811461043357600080fd5b600082611a9857611a986119c5565b500690565b600060018201611aaf57611aaf61199c565b506001019056fea2646970667358221220e72ae727b704f7f7653153f81c7e3c0b51b6529e1a0a6cbf50939cc5f88eccb064736f6c63430008160033","linkReferences":{}},"methodIdentifiers":{"BPOW_PRECISION()":"189d00ca","MAX_BPOW_BASE()":"bc694ea2","MIN_BPOW_BASE()":"ba019dab","addToPool(address,uint256)":"96bf230e","badd(uint256,uint256)":"0b71b95c","bdiv(uint256,uint256)":"7673eb11","bfloor(uint256)":"317223bc","bmul(uint256,uint256)":"8c051bf3","bpow(uint256,uint256)":"1d0a82df","bpowApprox(uint256,uint256,uint256)":"d011f32a","bpowi(uint256,uint256)":"cd660299","bsub(uint256,uint256)":"3cf3c7d4","bsubSign(uint256,uint256)":"743480cc","btoi(uint256)":"859ae48e","calcOutGivenIn(uint256,uint256,uint256,uint256,uint256,uint256)":"ba9530a6","calcPoolOutGivenSingleIn(uint256,uint256,uint256,uint256,uint256,uint256)":"8656b653","calculateTokenWeights(address,address)":"7776d1c2","feesAccured(address)":"d611411b","getTokenWeight(address)":"250aa683","getTotalPoolBalance()":"233fc9a2","poolTokens(uint256)":"dced1a5a","swap(address,address,uint256)":"df791e50","tokenPresent(address)":"e5df7083","userDepositsInToken(address,address)":"0731e79a","withdrawFromPool(address,uint256,uint256)":"9fec94cb"},"id":27}