{"abi":[{"type":"constructor","inputs":[],"stateMutability":"payable"},{"type":"receive","stateMutability":"payable"},{"type":"function","name":"__expected__","inputs":[],"outputs":[{"name":"","type":"tuple","internalType":"struct S_M.MSS_SS_SSM","components":[{"name":"offset__0","type":"uint8","internalType":"uint8"},{"name":"offset__1","type":"uint8","internalType":"uint8"},{"name":"offset__2","type":"uint8","internalType":"uint8"},{"name":"offset__3","type":"uint8","internalType":"uint8"},{"name":"offset__4","type":"uint8","internalType":"uint8"},{"name":"offset__5","type":"uint8","internalType":"uint8"},{"name":"offset__6","type":"uint8","internalType":"uint8"},{"name":"offset__7","type":"uint8","internalType":"uint8"},{"name":"offset2_8","type":"uint64","internalType":"uint64"},{"name":"offset2_9","type":"uint64","internalType":"uint64"},{"name":"__boom__","type":"uint16","internalType":"uint16"},{"name":"offset2_10","type":"uint48","internalType":"uint48"}]}],"stateMutability":"pure"},{"type":"function","name":"__hasNotSolved__","inputs":[{"name":"_level","type":"bytes","internalType":"bytes"}],"outputs":[],"stateMutability":"view"},{"type":"function","name":"__hasSolved__","inputs":[{"name":"_level","type":"bytes","internalType":"bytes"}],"outputs":[],"stateMutability":"view"},{"type":"function","name":"__isOwner__","inputs":[],"outputs":[],"stateMutability":"view"},{"type":"function","name":"get_C_Profit","inputs":[],"outputs":[],"stateMutability":"nonpayable"},{"type":"function","name":"levels","inputs":[{"name":"","type":"address","internalType":"address"},{"name":"","type":"bytes","internalType":"bytes"}],"outputs":[{"name":"","type":"bool","internalType":"bool"}],"stateMutability":"view"},{"type":"function","name":"owner","inputs":[],"outputs":[{"name":"","type":"address","internalType":"address"}],"stateMutability":"view"},{"type":"function","name":"registeredProxies","inputs":[{"name":"","type":"address","internalType":"address"}],"outputs":[{"name":"","type":"address","internalType":"address"}],"stateMutability":"view"},{"type":"function","name":"solve_challenge_A","inputs":[{"name":"c__","type":"bytes32","internalType":"bytes32"}],"outputs":[],"stateMutability":"payable"},{"type":"function","name":"solve_challenge_B","inputs":[],"outputs":[],"stateMutability":"nonpayable"},{"type":"function","name":"solve_challenge_C","inputs":[{"name":"_newPrincipal","type":"address","internalType":"address"}],"outputs":[],"stateMutability":"nonpayable"},{"type":"function","name":"solve_challenge_D","inputs":[{"name":"_proxy","type":"address","internalType":"address"}],"outputs":[],"stateMutability":"nonpayable"},{"type":"function","name":"solve_challenge_D2","inputs":[],"outputs":[],"stateMutability":"nonpayable"},{"type":"function","name":"trustCount","inputs":[{"name":"","type":"address","internalType":"address"}],"outputs":[{"name":"","type":"uint256","internalType":"uint256"}],"stateMutability":"view"},{"type":"function","name":"unlocked","inputs":[{"name":"","type":"bytes","internalType":"bytes"}],"outputs":[{"name":"","type":"bool","internalType":"bool"}],"stateMutability":"view"},{"type":"event","name":"DiSCoNnEcTeD","inputs":[],"anonymous":false},{"type":"event","name":"LevelUnlocked","inputs":[{"name":"opener","type":"address","indexed":false,"internalType":"address"},{"name":"level","type":"string","indexed":false,"internalType":"string"},{"name":"timeFired","type":"uint256","indexed":false,"internalType":"uint256"}],"anonymous":false},{"type":"event","name":"MasterLevelUnlocked","inputs":[{"name":"opener","type":"address","indexed":false,"internalType":"address"},{"name":"level","type":"string","indexed":false,"internalType":"string"},{"name":"timeFired","type":"uint256","indexed":false,"internalType":"uint256"}],"anonymous":false},{"type":"event","name":"PrincipalChanged","inputs":[{"name":"culprit","type":"address","indexed":false,"internalType":"address"},{"name":"newPrincipal","type":"address","indexed":false,"internalType":"address"},{"name":"timeFired","type":"uint256","indexed":false,"internalType":"uint256"}],"anonymous":false},{"type":"event","name":"ProxyRegistered","inputs":[{"name":"registrar","type":"address","indexed":false,"internalType":"address"},{"name":"proxy","type":"address","indexed":false,"internalType":"address"},{"name":"timeFired","type":"uint256","indexed":false,"internalType":"uint256"}],"anonymous":false},{"type":"error","name":"LevelNotPassed","inputs":[{"name":"","type":"string","internalType":"string"}]}],"bytecode":{"object":"0x6080604052600480546001600160a01b03191633179055611410806100256000396000f3fe6080604052600436106100ec5760003560e01c8063a630be911161008a578063bc7842ce11610059578063bc7842ce14610292578063d554e5f1146102cd578063d782e425146102ed578063e53ab0041461036457600080fd5b8063a630be9114610201578063a701c15a1461024a578063b554d1421461026a578063b9cf8e8e1461027f57600080fd5b806342de9591116100c657806342de95911461017f578063713f6fd9146101945780638da5cb5b146101b4578063913fb90c146101ec57600080fd5b806303d1bd6f146100f85780631599af2e1461010f578063225ef6e11461015f57600080fd5b366100f357005b600080fd5b34801561010457600080fd5b5061010d61039a565b005b34801561011b57600080fd5b5061014a61012a366004610f6d565b805160208183018101805160018252928201919093012091525460ff1681565b60405190151581526020015b60405180910390f35b34801561016b57600080fd5b5061010d61017a366004610f6d565b610612565b34801561018b57600080fd5b5061010d610672565b3480156101a057600080fd5b5061010d6101af366004610fc6565b6106ba565b3480156101c057600080fd5b506004546101d4906001600160a01b031681565b6040516001600160a01b039091168152602001610156565b3480156101f857600080fd5b5061010d61078b565b34801561020d57600080fd5b5061014a61021c366004610fe8565b6000602081815292815260409020815180830184018051928152908401929093019190912091525460ff1681565b34801561025657600080fd5b5061010d610265366004610fc6565b610a1f565b34801561027657600080fd5b5061010d610ada565b61010d61028d366004611036565b610c04565b34801561029e57600080fd5b506102bf6102ad366004610fc6565b60026020526000908152604090205481565b604051908152602001610156565b3480156102d957600080fd5b5061010d6102e8366004610f6d565b610e34565b3480156102f957600080fd5b506040805161018081018252600080825260208201819052818301819052606082018190526080820181905260a0820181905260c0820181905260e082018190526101008201819052610120820181905261014082018190526101608201529051610156919061104f565b34801561037057600080fd5b506101d461037f366004610fc6565b6003602052600090815260409020546001600160a01b031681565b604051664c6576656c204160c81b60208201526103c9906027015b604051602081830303815290604052610612565b604051662632bb32b6102160c91b60208201526103f8906027015b604051602081830303815290604052610e34565b33600090815260026020526040902054156104465733600090815260026020526040808220829055517f163bc570e3439fd68301babdacbfaae5f6362428377274b0add1592a71d423a79190a15b60405160009033908281818181865af19150503d8060008114610485576040519150601f19603f3d011682016040523d82523d6000602084013e61048a565b606091505b50509050801561060f573360009081526002602052604081208054916104af8361113f565b909155506104e09050600f7f8bdfeee14d9ac54fc87c1979a63f61f37dbee3d415836de3ac6baac7802e96cc61117c565b3360009081526002602052604090205460ff91909116900361060f5760018060405160200161051c90662632bb32b6102160c91b815260070190565b60408051601f1981840301815290829052610536916111c2565b9081526040805160209281900383018120805460ff19169415159490941790935532600090815280835220662632bb32b6102160c91b9183019190915260019160270160408051601f1981840301815290829052610593916111c2565b90815260405160209181900382018120805460ff191693151593909317909255662632bb32b6102160c91b908201527f6c342ab3f0e319f98c21d843de0e79d7280a122598ebd9dedafb586aed6ac10e90329060270160408051601f19818403018152908290526106069291429061120a565b60405180910390a15b50565b326000908152602081905260409081902090518291906106339083906111c2565b9081526040519081900360200190205460ff1661066e57806040516396047b0b60e01b8152600401610665919061123e565b60405180910390fd5b5050565b6004546001600160a01b031633146106b85760405162461bcd60e51b81526020600482015260096024820152682737ba1037bbb732b960b91b6044820152606401610665565b565b6106cc6040516020016103b590611251565b6001600160a01b0381163b156107245760405162461bcd60e51b815260206004820152601d60248201527f50524f58494553204d555354204e4f5420434f4e5441494e20434f44450000006044820152606401610665565b3260008181526003602090815260409182902080546001600160a01b0319166001600160a01b03861690811790915582519384529083015242908201527fb57b5f971f9a8d2501b557b69a1ac844d7f4df372033ddc6065931b0e90bd12090606001610606565b61079d6040516020016103b590611251565b6040516613195d995b081160ca1b60208201526107bc906027016103e4565b326000908152600360205260409020546001600160a01b03166107e1576107e1611264565b326000908152600360205260408120546001600160a01b03163b90036108495760405162461bcd60e51b815260206004820152601b60248201527f50524f584945532053484f554c4420434f4e5441494e20434f444500000000006044820152606401610665565b3260008181526003602081815260408084205481516001600160a01b03909116818401819052825180830385018152828401808552815191860191909120979096529390925263d782e42560e01b909352915160f09390931c92909163d782e425916044808301926101809291908290030181865afa1580156108d0573d6000803e3d6000fd5b505050506040513d601f19601f820116820180604052508101906108f491906112cb565b610140015161ffff161461090a5761090a611264565b60018060405160200161092a906613195d995b081160ca1b815260070190565b60408051601f1981840301815290829052610944916111c2565b9081526040805160209281900383018120805460ff191694151594909417909355326000908152808352206613195d995b081160ca1b9183019190915260019160270160408051601f19818403018152908290526109a1916111c2565b90815260405160209181900382018120805460ff1916931515939093179092556613195d995b081160ca1b908201527f67f24335a63395fff249333985969f7ff096b15517fdd4867de2407cb8473f8e9033906027015b60408051601f1981840301815290829052610a159291429061120a565b60405180910390a1565b32331461060f576001600160a01b0381163b15610a7e5760405162461bcd60e51b815260206004820152601860248201527f4964616e206e6f20737570706f73652067657420636f646500000000000000006044820152606401610665565b600580546001600160a01b0319166001600160a01b03831690811790915560408051328152602081019290925242908201527f83222d9aa4f8fd3e39e1f4be59934b1fa8ab7d92e5ff0e68977556a786ca0a3a90606001610606565b610aec6040516020016103e490611251565b6005546001600160a01b03163214610b365760405162461bcd60e51b815260206004820152600d60248201526c139bdd08141c9a5b98da5c185b609a1b6044820152606401610665565b600180604051602001610b4890611251565b60408051601f1981840301815290829052610b62916111c2565b9081526040805160209281900383018120805460ff191694151594909417909355326000908152808352206001929091610b9c9101611251565b60408051601f1981840301815290829052610bb6916111c2565b90815260405160209181900382018120805460ff1916931515939093179092557f67f24335a63395fff249333985969f7ff096b15517fdd4867de2407cb8473f8e9133916109f89101611251565b604051664c6576656c204160c81b6020820152610c23906027016103e4565b3332610c34606461ffff84166113b7565b63ffffffff163414610c7b5760405162461bcd60e51b815260206004820152601060248201526f497320697420666f72206265616e733f60801b6044820152606401610665565b6040805160208101829052601860608201527f307834345c307833335c307832325c307831315c30783030000000000000000060808201526001600160a01b0383169181019190915260a001604051602081830303815290604052805190602001208314610d1d5760405162461bcd60e51b815260206004820152600f60248201526e497320697420666f7220676172726960881b6044820152606401610665565b600180604051602001610d3d90664c6576656c204160c81b815260070190565b60408051601f1981840301815290829052610d57916111c2565b9081526040805160209281900383018120805460ff19169415159490941790935532600090815280835220664c6576656c204160c81b9183019190915260019160270160408051601f1981840301815290829052610db4916111c2565b90815260405160209181900382018120805460ff191693151593909317909255664c6576656c204160c81b908201527f67f24335a63395fff249333985969f7ff096b15517fdd4867de2407cb8473f8e90329060270160408051601f1981840301815290829052610e279291429061120a565b60405180910390a1505050565b32600090815260208190526040908190209051610e529083906111c2565b9081526040519081900360200190205460ff161561060f5760405162461bcd60e51b815260206004820152600b60248201526a13195d995b14185cdcd95960aa1b6044820152606401610665565b634e487b7160e01b600052604160045260246000fd5b604051610180810167ffffffffffffffff81118282101715610eda57610eda610ea0565b60405290565b600082601f830112610ef157600080fd5b813567ffffffffffffffff80821115610f0c57610f0c610ea0565b604051601f8301601f19908116603f01168101908282118183101715610f3457610f34610ea0565b81604052838152866020858801011115610f4d57600080fd5b836020870160208301376000602085830101528094505050505092915050565b600060208284031215610f7f57600080fd5b813567ffffffffffffffff811115610f9657600080fd5b610fa284828501610ee0565b949350505050565b80356001600160a01b0381168114610fc157600080fd5b919050565b600060208284031215610fd857600080fd5b610fe182610faa565b9392505050565b60008060408385031215610ffb57600080fd5b61100483610faa565b9150602083013567ffffffffffffffff81111561102057600080fd5b61102c85828601610ee0565b9150509250929050565b60006020828403121561104857600080fd5b5035919050565b815160ff1681526101808101602083015161106f602084018260ff169052565b506040830151611084604084018260ff169052565b506060830151611099606084018260ff169052565b5060808301516110ae608084018260ff169052565b5060a08301516110c360a084018260ff169052565b5060c08301516110d860c084018260ff169052565b5060e08301516110ed60e084018260ff169052565b506101008381015167ffffffffffffffff9081169184019190915261012080850151909116908301526101408084015161ffff16908301526101609283015165ffffffffffff16929091019190915290565b60006001820161115f57634e487b7160e01b600052601160045260246000fd5b5060010190565b634e487b7160e01b600052601260045260246000fd5b600060ff83168061118f5761118f611166565b8060ff84160691505092915050565b60005b838110156111b95781810151838201526020016111a1565b50506000910152565b600082516111d481846020870161119e565b9190910192915050565b600081518084526111f681602086016020860161119e565b601f01601f19169290920160200192915050565b6001600160a01b038416815260606020820181905260009061122e908301856111de565b9050826040830152949350505050565b602081526000610fe160208301846111de565b664c6576656c204360c81b815260070190565b634e487b7160e01b600052600160045260246000fd5b805160ff81168114610fc157600080fd5b805167ffffffffffffffff81168114610fc157600080fd5b805161ffff81168114610fc157600080fd5b805165ffffffffffff81168114610fc157600080fd5b600061018082840312156112de57600080fd5b6112e6610eb6565b6112ef8361127a565b81526112fd6020840161127a565b602082015261130e6040840161127a565b604082015261131f6060840161127a565b60608201526113306080840161127a565b608082015261134160a0840161127a565b60a082015261135260c0840161127a565b60c082015261136360e0840161127a565b60e082015261010061137681850161128b565b9082015261012061138884820161128b565b9082015261014061139a8482016112a3565b908201526101606113ac8482016112b5565b908201529392505050565b600063ffffffff808416806113ce576113ce611166565b9216919091049291505056fea2646970667358221220e1a6bebf9148795038c48b80ce44f074495c141d6b1db61637fcdb1d3fca137a64736f6c63430008160033","linkReferences":{}},"methodIdentifiers":{"__expected__()":"d782e425","__hasNotSolved__(bytes)":"d554e5f1","__hasSolved__(bytes)":"225ef6e1","__isOwner__()":"42de9591","get_C_Profit()":"b554d142","levels(address,bytes)":"a630be91","owner()":"8da5cb5b","registeredProxies(address)":"e53ab004","solve_challenge_A(bytes32)":"b9cf8e8e","solve_challenge_B()":"03d1bd6f","solve_challenge_C(address)":"a701c15a","solve_challenge_D(address)":"713f6fd9","solve_challenge_D2()":"913fb90c","trustCount(address)":"bc7842ce","unlocked(bytes)":"1599af2e"},"id":0}